{
  "contractName": "MyToken",
  "abi": [
    {
      "inputs": [],
      "stateMutability": "nonpayable",
      "type": "constructor"
    },
    {
      "anonymous": false,
      "inputs": [
        {
          "indexed": true,
          "internalType": "address",
          "name": "owner",
          "type": "address"
        },
        {
          "indexed": true,
          "internalType": "address",
          "name": "spender",
          "type": "address"
        },
        {
          "indexed": false,
          "internalType": "uint256",
          "name": "value",
          "type": "uint256"
        }
      ],
      "name": "Approval",
      "type": "event"
    },
    {
      "anonymous": false,
      "inputs": [
        {
          "indexed": true,
          "internalType": "address",
          "name": "delegator",
          "type": "address"
        },
        {
          "indexed": true,
          "internalType": "address",
          "name": "fromDelegate",
          "type": "address"
        },
        {
          "indexed": true,
          "internalType": "address",
          "name": "toDelegate",
          "type": "address"
        }
      ],
      "name": "DelegateChanged",
      "type": "event"
    },
    {
      "anonymous": false,
      "inputs": [
        {
          "indexed": true,
          "internalType": "address",
          "name": "delegate",
          "type": "address"
        },
        {
          "indexed": false,
          "internalType": "uint256",
          "name": "previousBalance",
          "type": "uint256"
        },
        {
          "indexed": false,
          "internalType": "uint256",
          "name": "newBalance",
          "type": "uint256"
        }
      ],
      "name": "DelegateVotesChanged",
      "type": "event"
    },
    {
      "anonymous": false,
      "inputs": [
        {
          "indexed": true,
          "internalType": "address",
          "name": "from",
          "type": "address"
        },
        {
          "indexed": true,
          "internalType": "address",
          "name": "to",
          "type": "address"
        },
        {
          "indexed": false,
          "internalType": "uint256",
          "name": "value",
          "type": "uint256"
        }
      ],
      "name": "Transfer",
      "type": "event"
    },
    {
      "inputs": [],
      "name": "DOMAIN_SEPARATOR",
      "outputs": [
        {
          "internalType": "bytes32",
          "name": "",
          "type": "bytes32"
        }
      ],
      "stateMutability": "view",
      "type": "function",
      "constant": true
    },
    {
      "inputs": [
        {
          "internalType": "address",
          "name": "owner",
          "type": "address"
        },
        {
          "internalType": "address",
          "name": "spender",
          "type": "address"
        }
      ],
      "name": "allowance",
      "outputs": [
        {
          "internalType": "uint256",
          "name": "",
          "type": "uint256"
        }
      ],
      "stateMutability": "view",
      "type": "function",
      "constant": true
    },
    {
      "inputs": [
        {
          "internalType": "address",
          "name": "spender",
          "type": "address"
        },
        {
          "internalType": "uint256",
          "name": "amount",
          "type": "uint256"
        }
      ],
      "name": "approve",
      "outputs": [
        {
          "internalType": "bool",
          "name": "",
          "type": "bool"
        }
      ],
      "stateMutability": "nonpayable",
      "type": "function"
    },
    {
      "inputs": [
        {
          "internalType": "address",
          "name": "account",
          "type": "address"
        }
      ],
      "name": "balanceOf",
      "outputs": [
        {
          "internalType": "uint256",
          "name": "",
          "type": "uint256"
        }
      ],
      "stateMutability": "view",
      "type": "function",
      "constant": true
    },
    {
      "inputs": [
        {
          "internalType": "address",
          "name": "account",
          "type": "address"
        },
        {
          "internalType": "uint32",
          "name": "pos",
          "type": "uint32"
        }
      ],
      "name": "checkpoints",
      "outputs": [
        {
          "components": [
            {
              "internalType": "uint32",
              "name": "fromBlock",
              "type": "uint32"
            },
            {
              "internalType": "uint224",
              "name": "votes",
              "type": "uint224"
            }
          ],
          "internalType": "struct ERC20Votes.Checkpoint",
          "name": "",
          "type": "tuple"
        }
      ],
      "stateMutability": "view",
      "type": "function",
      "constant": true
    },
    {
      "inputs": [],
      "name": "decimals",
      "outputs": [
        {
          "internalType": "uint8",
          "name": "",
          "type": "uint8"
        }
      ],
      "stateMutability": "view",
      "type": "function",
      "constant": true
    },
    {
      "inputs": [
        {
          "internalType": "address",
          "name": "spender",
          "type": "address"
        },
        {
          "internalType": "uint256",
          "name": "subtractedValue",
          "type": "uint256"
        }
      ],
      "name": "decreaseAllowance",
      "outputs": [
        {
          "internalType": "bool",
          "name": "",
          "type": "bool"
        }
      ],
      "stateMutability": "nonpayable",
      "type": "function"
    },
    {
      "inputs": [
        {
          "internalType": "address",
          "name": "delegatee",
          "type": "address"
        }
      ],
      "name": "delegate",
      "outputs": [],
      "stateMutability": "nonpayable",
      "type": "function"
    },
    {
      "inputs": [
        {
          "internalType": "address",
          "name": "delegatee",
          "type": "address"
        },
        {
          "internalType": "uint256",
          "name": "nonce",
          "type": "uint256"
        },
        {
          "internalType": "uint256",
          "name": "expiry",
          "type": "uint256"
        },
        {
          "internalType": "uint8",
          "name": "v",
          "type": "uint8"
        },
        {
          "internalType": "bytes32",
          "name": "r",
          "type": "bytes32"
        },
        {
          "internalType": "bytes32",
          "name": "s",
          "type": "bytes32"
        }
      ],
      "name": "delegateBySig",
      "outputs": [],
      "stateMutability": "nonpayable",
      "type": "function"
    },
    {
      "inputs": [
        {
          "internalType": "address",
          "name": "account",
          "type": "address"
        }
      ],
      "name": "delegates",
      "outputs": [
        {
          "internalType": "address",
          "name": "",
          "type": "address"
        }
      ],
      "stateMutability": "view",
      "type": "function",
      "constant": true
    },
    {
      "inputs": [
        {
          "internalType": "uint256",
          "name": "blockNumber",
          "type": "uint256"
        }
      ],
      "name": "getPastTotalSupply",
      "outputs": [
        {
          "internalType": "uint256",
          "name": "",
          "type": "uint256"
        }
      ],
      "stateMutability": "view",
      "type": "function",
      "constant": true
    },
    {
      "inputs": [
        {
          "internalType": "address",
          "name": "account",
          "type": "address"
        },
        {
          "internalType": "uint256",
          "name": "blockNumber",
          "type": "uint256"
        }
      ],
      "name": "getPastVotes",
      "outputs": [
        {
          "internalType": "uint256",
          "name": "",
          "type": "uint256"
        }
      ],
      "stateMutability": "view",
      "type": "function",
      "constant": true
    },
    {
      "inputs": [
        {
          "internalType": "address",
          "name": "account",
          "type": "address"
        }
      ],
      "name": "getVotes",
      "outputs": [
        {
          "internalType": "uint256",
          "name": "",
          "type": "uint256"
        }
      ],
      "stateMutability": "view",
      "type": "function",
      "constant": true
    },
    {
      "inputs": [
        {
          "internalType": "address",
          "name": "spender",
          "type": "address"
        },
        {
          "internalType": "uint256",
          "name": "addedValue",
          "type": "uint256"
        }
      ],
      "name": "increaseAllowance",
      "outputs": [
        {
          "internalType": "bool",
          "name": "",
          "type": "bool"
        }
      ],
      "stateMutability": "nonpayable",
      "type": "function"
    },
    {
      "inputs": [],
      "name": "name",
      "outputs": [
        {
          "internalType": "string",
          "name": "",
          "type": "string"
        }
      ],
      "stateMutability": "view",
      "type": "function",
      "constant": true
    },
    {
      "inputs": [
        {
          "internalType": "address",
          "name": "owner",
          "type": "address"
        }
      ],
      "name": "nonces",
      "outputs": [
        {
          "internalType": "uint256",
          "name": "",
          "type": "uint256"
        }
      ],
      "stateMutability": "view",
      "type": "function",
      "constant": true
    },
    {
      "inputs": [
        {
          "internalType": "address",
          "name": "account",
          "type": "address"
        }
      ],
      "name": "numCheckpoints",
      "outputs": [
        {
          "internalType": "uint32",
          "name": "",
          "type": "uint32"
        }
      ],
      "stateMutability": "view",
      "type": "function",
      "constant": true
    },
    {
      "inputs": [
        {
          "internalType": "address",
          "name": "owner",
          "type": "address"
        },
        {
          "internalType": "address",
          "name": "spender",
          "type": "address"
        },
        {
          "internalType": "uint256",
          "name": "value",
          "type": "uint256"
        },
        {
          "internalType": "uint256",
          "name": "deadline",
          "type": "uint256"
        },
        {
          "internalType": "uint8",
          "name": "v",
          "type": "uint8"
        },
        {
          "internalType": "bytes32",
          "name": "r",
          "type": "bytes32"
        },
        {
          "internalType": "bytes32",
          "name": "s",
          "type": "bytes32"
        }
      ],
      "name": "permit",
      "outputs": [],
      "stateMutability": "nonpayable",
      "type": "function"
    },
    {
      "inputs": [],
      "name": "symbol",
      "outputs": [
        {
          "internalType": "string",
          "name": "",
          "type": "string"
        }
      ],
      "stateMutability": "view",
      "type": "function",
      "constant": true
    },
    {
      "inputs": [],
      "name": "totalSupply",
      "outputs": [
        {
          "internalType": "uint256",
          "name": "",
          "type": "uint256"
        }
      ],
      "stateMutability": "view",
      "type": "function",
      "constant": true
    },
    {
      "inputs": [
        {
          "internalType": "address",
          "name": "recipient",
          "type": "address"
        },
        {
          "internalType": "uint256",
          "name": "amount",
          "type": "uint256"
        }
      ],
      "name": "transfer",
      "outputs": [
        {
          "internalType": "bool",
          "name": "",
          "type": "bool"
        }
      ],
      "stateMutability": "nonpayable",
      "type": "function"
    },
    {
      "inputs": [
        {
          "internalType": "address",
          "name": "sender",
          "type": "address"
        },
        {
          "internalType": "address",
          "name": "recipient",
          "type": "address"
        },
        {
          "internalType": "uint256",
          "name": "amount",
          "type": "uint256"
        }
      ],
      "name": "transferFrom",
      "outputs": [
        {
          "internalType": "bool",
          "name": "",
          "type": "bool"
        }
      ],
      "stateMutability": "nonpayable",
      "type": "function"
    },
    {
      "inputs": [
        {
          "internalType": "address",
          "name": "to",
          "type": "address"
        },
        {
          "internalType": "uint256",
          "name": "amount",
          "type": "uint256"
        }
      ],
      "name": "testmint",
      "outputs": [],
      "stateMutability": "nonpayable",
      "type": "function"
    }
  ],
  "bytecode": "0x6101606040527f6e71edae12b1b97f4d1f60370fef10105fa2faae0126114a169c64845d6126c9610140908152503480156200003a57600080fd5b506040518060400160405280600781526020017f4d79546f6b656e00000000000000000000000000000000000000000000000000815250806040518060400160405280600181526020017f31000000000000000000000000000000000000000000000000000000000000008152506040518060400160405280600681526020017f45564944414f00000000000000000000000000000000000000000000000000008152506040518060400160405280600381526020017f455649000000000000000000000000000000000000000000000000000000000081525081600390805190602001906200012c9291906200023d565b508060049080519060200190620001459291906200023d565b50505060008280519060200120905060008280519060200120905060007f8b73c3c69bb8fe3d512ecc4cf759cc79239f7b179b0ffacaa9a75d522b39400f90508260e081815250508161010081815250504660a08181525050620001b18184846200020160201b60201c565b608081815250503073ffffffffffffffffffffffffffffffffffffffff1660c08173ffffffffffffffffffffffffffffffffffffffff16815250508061012081815250505050505050506200042a565b600083838346306040516020016200021e95949392919062000368565b6040516020818303038152906040528051906020012090509392505050565b8280546200024b90620003f4565b90600052602060002090601f0160209004810192826200026f5760008555620002bb565b82601f106200028a57805160ff1916838001178555620002bb565b82800160010185558215620002bb579182015b82811115620002ba5782518255916020019190600101906200029d565b5b509050620002ca9190620002ce565b5090565b5b80821115620002e9576000816000905550600101620002cf565b5090565b6000819050919050565b6200030281620002ed565b82525050565b6000819050919050565b6200031d8162000308565b82525050565b600073ffffffffffffffffffffffffffffffffffffffff82169050919050565b6000620003508262000323565b9050919050565b620003628162000343565b82525050565b600060a0820190506200037f6000830188620002f7565b6200038e6020830187620002f7565b6200039d6040830186620002f7565b620003ac606083018562000312565b620003bb608083018462000357565b9695505050505050565b7f4e487b7100000000000000000000000000000000000000000000000000000000600052602260045260246000fd5b600060028204905060018216806200040d57607f821691505b60208210811415620004245762000423620003c5565b5b50919050565b60805160a05160c05160e0516101005161012051610140516138b4620004856000396000610dc601526000611568015260006115aa01526000611589015260006114be015260006115140152600061153d01526138b46000f3fe608060405234801561001057600080fd5b506004361061014d5760003560e01c80636fcfff45116100c3578063a457c2d71161007c578063a457c2d714610400578063a9059cbb14610430578063c3cda52014610460578063d505accf1461047c578063dd62ed3e14610498578063f1127ed8146104c85761014d565b80636fcfff45146102f257806370a08231146103225780637ecebe00146103525780638e539e8c1461038257806395d89b41146103b25780639ab24eb0146103d05761014d565b8063313ce56711610115578063313ce5671461020a5780633644e5151461022857806339509351146102465780633a46b1a814610276578063587cde1e146102a65780635c19a95c146102d65761014d565b8063016e26331461015257806306fdde031461016e578063095ea7b31461018c57806318160ddd146101bc57806323b872dd146101da575b600080fd5b61016c600480360381019061016791906124be565b6104f8565b005b610176610506565b6040516101839190612597565b60405180910390f35b6101a660048036038101906101a191906124be565b610598565b6040516101b391906125d4565b60405180910390f35b6101c46105b6565b6040516101d191906125fe565b60405180910390f35b6101f460048036038101906101ef9190612619565b6105c0565b60405161020191906125d4565b60405180910390f35b6102126106b8565b60405161021f9190612688565b60405180910390f35b6102306106c1565b60405161023d91906126bc565b60405180910390f35b610260600480360381019061025b91906124be565b6106d0565b60405161026d91906125d4565b60405180910390f35b610290600480360381019061028b91906124be565b61077c565b60405161029d91906125fe565b60405180910390f35b6102c060048036038101906102bb91906126d7565b610810565b6040516102cd9190612713565b60405180910390f35b6102f060048036038101906102eb91906126d7565b610879565b005b61030c600480360381019061030791906126d7565b61088d565b604051610319919061274d565b60405180910390f35b61033c600480360381019061033791906126d7565b6108e1565b60405161034991906125fe565b60405180910390f35b61036c600480360381019061036791906126d7565b610929565b60405161037991906125fe565b60405180910390f35b61039c60048036038101906103979190612768565b610979565b6040516103a991906125fe565b60405180910390f35b6103ba6109cf565b6040516103c79190612597565b60405180910390f35b6103ea60048036038101906103e591906126d7565b610a61565b6040516103f791906125fe565b60405180910390f35b61041a600480360381019061041591906124be565b610b72565b60405161042791906125d4565b60405180910390f35b61044a600480360381019061044591906124be565b610c5d565b60405161045791906125d4565b60405180910390f35b61047a600480360381019061047591906127ed565b610c7b565b005b6104966004803603810190610491919061287a565b610d7f565b005b6104b260048036038101906104ad919061291c565b610ec1565b6040516104bf91906125fe565b60405180910390f35b6104e260048036038101906104dd9190612988565b610f48565b6040516104ef9190612a3d565b60405180910390f35b6105028282611058565b5050565b60606003805461051590612a87565b80601f016020809104026020016040519081016040528092919081815260200182805461054190612a87565b801561058e5780601f106105635761010080835404028352916020019161058e565b820191906000526020600020905b81548152906001019060200180831161057157829003601f168201915b5050505050905090565b60006105ac6105a5611066565b848461106e565b6001905092915050565b6000600254905090565b60006105cd848484611239565b6000600160008673ffffffffffffffffffffffffffffffffffffffff1673ffffffffffffffffffffffffffffffffffffffff1681526020019081526020016000206000610618611066565b73ffffffffffffffffffffffffffffffffffffffff1673ffffffffffffffffffffffffffffffffffffffff16815260200190815260200160002054905082811015610698576040517f08c379a000000000000000000000000000000000000000000000000000000000815260040161068f90612b2b565b60405180910390fd5b6106ac856106a4611066565b85840361106e565b60019150509392505050565b60006012905090565b60006106cb6114ba565b905090565b60006107726106dd611066565b8484600160006106eb611066565b73ffffffffffffffffffffffffffffffffffffffff1673ffffffffffffffffffffffffffffffffffffffff16815260200190815260200160002060008873ffffffffffffffffffffffffffffffffffffffff1673ffffffffffffffffffffffffffffffffffffffff1681526020019081526020016000205461076d9190612b7a565b61106e565b6001905092915050565b60004382106107c0576040517f08c379a00000000000000000000000000000000000000000000000000000000081526004016107b790612c1c565b60405180910390fd5b610808600760008573ffffffffffffffffffffffffffffffffffffffff1673ffffffffffffffffffffffffffffffffffffffff168152602001908152602001600020836115d4565b905092915050565b6000600660008373ffffffffffffffffffffffffffffffffffffffff1673ffffffffffffffffffffffffffffffffffffffff16815260200190815260200160002060009054906101000a900473ffffffffffffffffffffffffffffffffffffffff169050919050565b61088a610884611066565b826116e0565b50565b60006108da600760008473ffffffffffffffffffffffffffffffffffffffff1673ffffffffffffffffffffffffffffffffffffffff168152602001908152602001600020805490506117fa565b9050919050565b60008060008373ffffffffffffffffffffffffffffffffffffffff1673ffffffffffffffffffffffffffffffffffffffff168152602001908152602001600020549050919050565b6000610972600560008473ffffffffffffffffffffffffffffffffffffffff1673ffffffffffffffffffffffffffffffffffffffff16815260200190815260200160002061184d565b9050919050565b60004382106109bd576040517f08c379a00000000000000000000000000000000000000000000000000000000081526004016109b490612c1c565b60405180910390fd5b6109c86008836115d4565b9050919050565b6060600480546109de90612a87565b80601f0160208091040260200160405190810160405280929190818152602001828054610a0a90612a87565b8015610a575780601f10610a2c57610100808354040283529160200191610a57565b820191906000526020600020905b815481529060010190602001808311610a3a57829003601f168201915b5050505050905090565b600080600760008473ffffffffffffffffffffffffffffffffffffffff1673ffffffffffffffffffffffffffffffffffffffff16815260200190815260200160002080549050905060008114610b4957600760008473ffffffffffffffffffffffffffffffffffffffff1673ffffffffffffffffffffffffffffffffffffffff168152602001908152602001600020600182610afd9190612c3c565b81548110610b0e57610b0d612c70565b5b9060005260206000200160000160049054906101000a90047bffffffffffffffffffffffffffffffffffffffffffffffffffffffff16610b4c565b60005b7bffffffffffffffffffffffffffffffffffffffffffffffffffffffff16915050919050565b60008060016000610b81611066565b73ffffffffffffffffffffffffffffffffffffffff1673ffffffffffffffffffffffffffffffffffffffff16815260200190815260200160002060008573ffffffffffffffffffffffffffffffffffffffff1673ffffffffffffffffffffffffffffffffffffffff16815260200190815260200160002054905082811015610c3e576040517f08c379a0000000000000000000000000000000000000000000000000000000008152600401610c3590612d11565b60405180910390fd5b610c52610c49611066565b8585840361106e565b600191505092915050565b6000610c71610c6a611066565b8484611239565b6001905092915050565b83421115610cbe576040517f08c379a0000000000000000000000000000000000000000000000000000000008152600401610cb590612d7d565b60405180910390fd5b6000610d20610d187fe48329057bfd03d55e49b547132e39cffd9c1820ad7b9d4c5307691425d15adf898989604051602001610cfd9493929190612d9d565b6040516020818303038152906040528051906020012061185b565b858585611875565b9050610d2b816118a0565b8614610d6c576040517f08c379a0000000000000000000000000000000000000000000000000000000008152600401610d6390612e2e565b60405180910390fd5b610d7681886116e0565b50505050505050565b83421115610dc2576040517f08c379a0000000000000000000000000000000000000000000000000000000008152600401610db990612e9a565b60405180910390fd5b60007f0000000000000000000000000000000000000000000000000000000000000000888888610df18c6118a0565b89604051602001610e0796959493929190612eba565b6040516020818303038152906040528051906020012090506000610e2a8261185b565b90506000610e3a82878787611875565b90508973ffffffffffffffffffffffffffffffffffffffff168173ffffffffffffffffffffffffffffffffffffffff1614610eaa576040517f08c379a0000000000000000000000000000000000000000000000000000000008152600401610ea190612f67565b60405180910390fd5b610eb58a8a8a61106e565b50505050505050505050565b6000600160008473ffffffffffffffffffffffffffffffffffffffff1673ffffffffffffffffffffffffffffffffffffffff16815260200190815260200160002060008373ffffffffffffffffffffffffffffffffffffffff1673ffffffffffffffffffffffffffffffffffffffff16815260200190815260200160002054905092915050565b610f506123e7565b600760008473ffffffffffffffffffffffffffffffffffffffff1673ffffffffffffffffffffffffffffffffffffffff1681526020019081526020016000208263ffffffff1681548110610fa757610fa6612c70565b5b906000526020600020016040518060400160405290816000820160009054906101000a900463ffffffff1663ffffffff1663ffffffff1681526020016000820160049054906101000a90047bffffffffffffffffffffffffffffffffffffffffffffffffffffffff167bffffffffffffffffffffffffffffffffffffffffffffffffffffffff167bffffffffffffffffffffffffffffffffffffffffffffffffffffffff1681525050905092915050565b61106282826118fe565b5050565b600033905090565b600073ffffffffffffffffffffffffffffffffffffffff168373ffffffffffffffffffffffffffffffffffffffff1614156110de576040517f08c379a00000000000000000000000000000000000000000000000000000000081526004016110d590612ff9565b60405180910390fd5b600073ffffffffffffffffffffffffffffffffffffffff168273ffffffffffffffffffffffffffffffffffffffff16141561114e576040517f08c379a00000000000000000000000000000000000000000000000000000000081526004016111459061308b565b60405180910390fd5b80600160008573ffffffffffffffffffffffffffffffffffffffff1673ffffffffffffffffffffffffffffffffffffffff16815260200190815260200160002060008473ffffffffffffffffffffffffffffffffffffffff1673ffffffffffffffffffffffffffffffffffffffff168152602001908152602001600020819055508173ffffffffffffffffffffffffffffffffffffffff168373ffffffffffffffffffffffffffffffffffffffff167f8c5be1e5ebec7d5bd14f71427d1e84f3dd0314c0f7b2291e5b200ac8c7c3b9258360405161122c91906125fe565b60405180910390a3505050565b600073ffffffffffffffffffffffffffffffffffffffff168373ffffffffffffffffffffffffffffffffffffffff1614156112a9576040517f08c379a00000000000000000000000000000000000000000000000000000000081526004016112a09061311d565b60405180910390fd5b600073ffffffffffffffffffffffffffffffffffffffff168273ffffffffffffffffffffffffffffffffffffffff161415611319576040517f08c379a0000000000000000000000000000000000000000000000000000000008152600401611310906131af565b60405180910390fd5b61132483838361198b565b60008060008573ffffffffffffffffffffffffffffffffffffffff1673ffffffffffffffffffffffffffffffffffffffff168152602001908152602001600020549050818110156113aa576040517f08c379a00000000000000000000000000000000000000000000000000000000081526004016113a190613241565b60405180910390fd5b8181036000808673ffffffffffffffffffffffffffffffffffffffff1673ffffffffffffffffffffffffffffffffffffffff16815260200190815260200160002081905550816000808573ffffffffffffffffffffffffffffffffffffffff1673ffffffffffffffffffffffffffffffffffffffff168152602001908152602001600020600082825461143d9190612b7a565b925050819055508273ffffffffffffffffffffffffffffffffffffffff168473ffffffffffffffffffffffffffffffffffffffff167fddf252ad1be2c89b69c2b068fc378daa952ba7f163c4a11628f55a4df523b3ef846040516114a191906125fe565b60405180910390a36114b4848484611990565b50505050565b60007f000000000000000000000000000000000000000000000000000000000000000073ffffffffffffffffffffffffffffffffffffffff163073ffffffffffffffffffffffffffffffffffffffff1614801561153657507f000000000000000000000000000000000000000000000000000000000000000046145b15611563577f000000000000000000000000000000000000000000000000000000000000000090506115d1565b6115ce7f00000000000000000000000000000000000000000000000000000000000000007f00000000000000000000000000000000000000000000000000000000000000007f00000000000000000000000000000000000000000000000000000000000000006119a0565b90505b90565b6000808380549050905060005b818110156116535760006115f582846119da565b90508486828154811061160b5761160a612c70565b5b9060005260206000200160000160009054906101000a900463ffffffff1663ffffffff16111561163d5780925061164d565b60018161164a9190612b7a565b91505b506115e1565b600082146116b557846001836116699190612c3c565b8154811061167a57611679612c70565b5b9060005260206000200160000160049054906101000a90047bffffffffffffffffffffffffffffffffffffffffffffffffffffffff166116b8565b60005b7bffffffffffffffffffffffffffffffffffffffffffffffffffffffff169250505092915050565b60006116eb83610810565b905060006116f8846108e1565b905082600660008673ffffffffffffffffffffffffffffffffffffffff1673ffffffffffffffffffffffffffffffffffffffff16815260200190815260200160002060006101000a81548173ffffffffffffffffffffffffffffffffffffffff021916908373ffffffffffffffffffffffffffffffffffffffff1602179055508273ffffffffffffffffffffffffffffffffffffffff168273ffffffffffffffffffffffffffffffffffffffff168573ffffffffffffffffffffffffffffffffffffffff167f3134e8a2e6d97e929a7e54011ea5485d7d196dd5f0ba4d4ef95803e8e3fc257f60405160405180910390a46117f4828483611a00565b50505050565b600063ffffffff8016821115611845576040517f08c379a000000000000000000000000000000000000000000000000000000000815260040161183c906132d3565b60405180910390fd5b819050919050565b600081600001549050919050565b600061186e6118686114ba565b83611bf9565b9050919050565b600080600061188687878787611c2c565b9150915061189381611d39565b8192505050949350505050565b600080600560008473ffffffffffffffffffffffffffffffffffffffff1673ffffffffffffffffffffffffffffffffffffffff16815260200190815260200160002090506118ed8161184d565b91506118f881611f0e565b50919050565b6119088282611f24565b611910612084565b7bffffffffffffffffffffffffffffffffffffffffffffffffffffffff166119366105b6565b1115611977576040517f08c379a000000000000000000000000000000000000000000000000000000000815260040161196e90613365565b60405180910390fd5b61198560086120a8836120be565b50505050565b505050565b61199b838383612336565b505050565b600083838346306040516020016119bb959493929190613385565b6040516020818303038152906040528051906020012090509392505050565b600060028284186119eb9190613407565b8284166119f89190612b7a565b905092915050565b8173ffffffffffffffffffffffffffffffffffffffff168373ffffffffffffffffffffffffffffffffffffffff1614158015611a3c5750600081115b15611bf457600073ffffffffffffffffffffffffffffffffffffffff168373ffffffffffffffffffffffffffffffffffffffff1614611b1a57600080611ac3600760008773ffffffffffffffffffffffffffffffffffffffff1673ffffffffffffffffffffffffffffffffffffffff168152602001908152602001600020612361856120be565b915091508473ffffffffffffffffffffffffffffffffffffffff167fdec2bacdd2f05b59de34da9b523dff8be42e5e38e818c82fdb0bae774387a7248383604051611b0f929190613438565b60405180910390a250505b600073ffffffffffffffffffffffffffffffffffffffff168273ffffffffffffffffffffffffffffffffffffffff1614611bf357600080611b9c600760008673ffffffffffffffffffffffffffffffffffffffff1673ffffffffffffffffffffffffffffffffffffffff1681526020019081526020016000206120a8856120be565b915091508373ffffffffffffffffffffffffffffffffffffffff167fdec2bacdd2f05b59de34da9b523dff8be42e5e38e818c82fdb0bae774387a7248383604051611be8929190613438565b60405180910390a250505b5b505050565b60008282604051602001611c0e9291906134d9565b60405160208183030381529060405280519060200120905092915050565b6000807f7fffffffffffffffffffffffffffffff5d576e7357a4501ddfe92f46681b20a08360001c1115611c67576000600391509150611d30565b601b8560ff1614158015611c7f5750601c8560ff1614155b15611c91576000600491509150611d30565b600060018787878760405160008152602001604052604051611cb69493929190613510565b6020604051602081039080840390855afa158015611cd8573d6000803e3d6000fd5b505050602060405103519050600073ffffffffffffffffffffffffffffffffffffffff168173ffffffffffffffffffffffffffffffffffffffff161415611d2757600060019250925050611d30565b80600092509250505b94509492505050565b60006004811115611d4d57611d4c613555565b5b816004811115611d6057611d5f613555565b5b1415611d6b57611f0b565b60016004811115611d7f57611d7e613555565b5b816004811115611d9257611d91613555565b5b1415611dd3576040517f08c379a0000000000000000000000000000000000000000000000000000000008152600401611dca906135d0565b60405180910390fd5b60026004811115611de757611de6613555565b5b816004811115611dfa57611df9613555565b5b1415611e3b576040517f08c379a0000000000000000000000000000000000000000000000000000000008152600401611e329061363c565b60405180910390fd5b60036004811115611e4f57611e4e613555565b5b816004811115611e6257611e61613555565b5b1415611ea3576040517f08c379a0000000000000000000000000000000000000000000000000000000008152600401611e9a906136ce565b60405180910390fd5b600480811115611eb657611eb5613555565b5b816004811115611ec957611ec8613555565b5b1415611f0a576040517f08c379a0000000000000000000000000000000000000000000000000000000008152600401611f0190613760565b60405180910390fd5b5b50565b6001816000016000828254019250508190555050565b600073ffffffffffffffffffffffffffffffffffffffff168273ffffffffffffffffffffffffffffffffffffffff161415611f94576040517f08c379a0000000000000000000000000000000000000000000000000000000008152600401611f8b906137cc565b60405180910390fd5b611fa06000838361198b565b8060026000828254611fb29190612b7a565b92505081905550806000808473ffffffffffffffffffffffffffffffffffffffff1673ffffffffffffffffffffffffffffffffffffffff16815260200190815260200160002060008282546120079190612b7a565b925050819055508173ffffffffffffffffffffffffffffffffffffffff16600073ffffffffffffffffffffffffffffffffffffffff167fddf252ad1be2c89b69c2b068fc378daa952ba7f163c4a11628f55a4df523b3ef8360405161206c91906125fe565b60405180910390a361208060008383611990565b5050565b60007bffffffffffffffffffffffffffffffffffffffffffffffffffffffff905090565b600081836120b69190612b7a565b905092915050565b6000806000858054905090506000811461212c57856001826120e09190612c3c565b815481106120f1576120f0612c70565b5b9060005260206000200160000160049054906101000a90047bffffffffffffffffffffffffffffffffffffffffffffffffffffffff1661212f565b60005b7bffffffffffffffffffffffffffffffffffffffffffffffffffffffff16925061215d83858763ffffffff16565b91506000811180156121b0575043866001836121799190612c3c565b8154811061218a57612189612c70565b5b9060005260206000200160000160009054906101000a900463ffffffff1663ffffffff16145b1561223d576121be82612377565b866001836121cc9190612c3c565b815481106121dd576121dc612c70565b5b9060005260206000200160000160046101000a8154817bffffffffffffffffffffffffffffffffffffffffffffffffffffffff02191690837bffffffffffffffffffffffffffffffffffffffffffffffffffffffff16021790555061232d565b856040518060400160405280612252436117fa565b63ffffffff16815260200161226685612377565b7bffffffffffffffffffffffffffffffffffffffffffffffffffffffff168152509080600181540180825580915050600190039060005260206000200160009091909190915060008201518160000160006101000a81548163ffffffff021916908363ffffffff16021790555060208201518160000160046101000a8154817bffffffffffffffffffffffffffffffffffffffffffffffffffffffff02191690837bffffffffffffffffffffffffffffffffffffffffffffffffffffffff16021790555050505b50935093915050565b6123418383836123e2565b61235c61234d84610810565b61235684610810565b83611a00565b505050565b6000818361236f9190612c3c565b905092915050565b60007bffffffffffffffffffffffffffffffffffffffffffffffffffffffff80168211156123da576040517f08c379a00000000000000000000000000000000000000000000000000000000081526004016123d19061385e565b60405180910390fd5b819050919050565b505050565b6040518060400160405280600063ffffffff16815260200160007bffffffffffffffffffffffffffffffffffffffffffffffffffffffff1681525090565b600080fd5b600073ffffffffffffffffffffffffffffffffffffffff82169050919050565b60006124558261242a565b9050919050565b6124658161244a565b811461247057600080fd5b50565b6000813590506124828161245c565b92915050565b6000819050919050565b61249b81612488565b81146124a657600080fd5b50565b6000813590506124b881612492565b92915050565b600080604083850312156124d5576124d4612425565b5b60006124e385828601612473565b92505060206124f4858286016124a9565b9150509250929050565b600081519050919050565b600082825260208201905092915050565b60005b8381101561253857808201518184015260208101905061251d565b83811115612547576000848401525b50505050565b6000601f19601f8301169050919050565b6000612569826124fe565b6125738185612509565b935061258381856020860161251a565b61258c8161254d565b840191505092915050565b600060208201905081810360008301526125b1818461255e565b905092915050565b60008115159050919050565b6125ce816125b9565b82525050565b60006020820190506125e960008301846125c5565b92915050565b6125f881612488565b82525050565b600060208201905061261360008301846125ef565b92915050565b60008060006060848603121561263257612631612425565b5b600061264086828701612473565b935050602061265186828701612473565b9250506040612662868287016124a9565b9150509250925092565b600060ff82169050919050565b6126828161266c565b82525050565b600060208201905061269d6000830184612679565b92915050565b6000819050919050565b6126b6816126a3565b82525050565b60006020820190506126d160008301846126ad565b92915050565b6000602082840312156126ed576126ec612425565b5b60006126fb84828501612473565b91505092915050565b61270d8161244a565b82525050565b60006020820190506127286000830184612704565b92915050565b600063ffffffff82169050919050565b6127478161272e565b82525050565b6000602082019050612762600083018461273e565b92915050565b60006020828403121561277e5761277d612425565b5b600061278c848285016124a9565b91505092915050565b61279e8161266c565b81146127a957600080fd5b50565b6000813590506127bb81612795565b92915050565b6127ca816126a3565b81146127d557600080fd5b50565b6000813590506127e7816127c1565b92915050565b60008060008060008060c0878903121561280a57612809612425565b5b600061281889828a01612473565b965050602061282989828a016124a9565b955050604061283a89828a016124a9565b945050606061284b89828a016127ac565b935050608061285c89828a016127d8565b92505060a061286d89828a016127d8565b9150509295509295509295565b600080600080600080600060e0888a03121561289957612898612425565b5b60006128a78a828b01612473565b97505060206128b88a828b01612473565b96505060406128c98a828b016124a9565b95505060606128da8a828b016124a9565b94505060806128eb8a828b016127ac565b93505060a06128fc8a828b016127d8565b92505060c061290d8a828b016127d8565b91505092959891949750929550565b6000806040838503121561293357612932612425565b5b600061294185828601612473565b925050602061295285828601612473565b9150509250929050565b6129658161272e565b811461297057600080fd5b50565b6000813590506129828161295c565b92915050565b6000806040838503121561299f5761299e612425565b5b60006129ad85828601612473565b92505060206129be85828601612973565b9150509250929050565b6129d18161272e565b82525050565b60007bffffffffffffffffffffffffffffffffffffffffffffffffffffffff82169050919050565b612a08816129d7565b82525050565b604082016000820151612a2460008501826129c8565b506020820151612a3760208501826129ff565b50505050565b6000604082019050612a526000830184612a0e565b92915050565b7f4e487b7100000000000000000000000000000000000000000000000000000000600052602260045260246000fd5b60006002820490506001821680612a9f57607f821691505b60208210811415612ab357612ab2612a58565b5b50919050565b7f45524332303a207472616e7366657220616d6f756e742065786365656473206160008201527f6c6c6f77616e6365000000000000000000000000000000000000000000000000602082015250565b6000612b15602883612509565b9150612b2082612ab9565b604082019050919050565b60006020820190508181036000830152612b4481612b08565b9050919050565b7f4e487b7100000000000000000000000000000000000000000000000000000000600052601160045260246000fd5b6000612b8582612488565b9150612b9083612488565b9250827fffffffffffffffffffffffffffffffffffffffffffffffffffffffffffffffff03821115612bc557612bc4612b4b565b5b828201905092915050565b7f4552433230566f7465733a20626c6f636b206e6f7420796574206d696e656400600082015250565b6000612c06601f83612509565b9150612c1182612bd0565b602082019050919050565b60006020820190508181036000830152612c3581612bf9565b9050919050565b6000612c4782612488565b9150612c5283612488565b925082821015612c6557612c64612b4b565b5b828203905092915050565b7f4e487b7100000000000000000000000000000000000000000000000000000000600052603260045260246000fd5b7f45524332303a2064656372656173656420616c6c6f77616e63652062656c6f7760008201527f207a65726f000000000000000000000000000000000000000000000000000000602082015250565b6000612cfb602583612509565b9150612d0682612c9f565b604082019050919050565b60006020820190508181036000830152612d2a81612cee565b9050919050565b7f4552433230566f7465733a207369676e61747572652065787069726564000000600082015250565b6000612d67601d83612509565b9150612d7282612d31565b602082019050919050565b60006020820190508181036000830152612d9681612d5a565b9050919050565b6000608082019050612db260008301876126ad565b612dbf6020830186612704565b612dcc60408301856125ef565b612dd960608301846125ef565b95945050505050565b7f4552433230566f7465733a20696e76616c6964206e6f6e636500000000000000600082015250565b6000612e18601983612509565b9150612e2382612de2565b602082019050919050565b60006020820190508181036000830152612e4781612e0b565b9050919050565b7f45524332305065726d69743a206578706972656420646561646c696e65000000600082015250565b6000612e84601d83612509565b9150612e8f82612e4e565b602082019050919050565b60006020820190508181036000830152612eb381612e77565b9050919050565b600060c082019050612ecf60008301896126ad565b612edc6020830188612704565b612ee96040830187612704565b612ef660608301866125ef565b612f0360808301856125ef565b612f1060a08301846125ef565b979650505050505050565b7f45524332305065726d69743a20696e76616c6964207369676e61747572650000600082015250565b6000612f51601e83612509565b9150612f5c82612f1b565b602082019050919050565b60006020820190508181036000830152612f8081612f44565b9050919050565b7f45524332303a20617070726f76652066726f6d20746865207a65726f2061646460008201527f7265737300000000000000000000000000000000000000000000000000000000602082015250565b6000612fe3602483612509565b9150612fee82612f87565b604082019050919050565b6000602082019050818103600083015261301281612fd6565b9050919050565b7f45524332303a20617070726f766520746f20746865207a65726f20616464726560008201527f7373000000000000000000000000000000000000000000000000000000000000602082015250565b6000613075602283612509565b915061308082613019565b604082019050919050565b600060208201905081810360008301526130a481613068565b9050919050565b7f45524332303a207472616e736665722066726f6d20746865207a65726f20616460008201527f6472657373000000000000000000000000000000000000000000000000000000602082015250565b6000613107602583612509565b9150613112826130ab565b604082019050919050565b60006020820190508181036000830152613136816130fa565b9050919050565b7f45524332303a207472616e7366657220746f20746865207a65726f206164647260008201527f6573730000000000000000000000000000000000000000000000000000000000602082015250565b6000613199602383612509565b91506131a48261313d565b604082019050919050565b600060208201905081810360008301526131c88161318c565b9050919050565b7f45524332303a207472616e7366657220616d6f756e742065786365656473206260008201527f616c616e63650000000000000000000000000000000000000000000000000000602082015250565b600061322b602683612509565b9150613236826131cf565b604082019050919050565b6000602082019050818103600083015261325a8161321e565b9050919050565b7f53616665436173743a2076616c756520646f65736e27742066697420696e203360008201527f3220626974730000000000000000000000000000000000000000000000000000602082015250565b60006132bd602683612509565b91506132c882613261565b604082019050919050565b600060208201905081810360008301526132ec816132b0565b9050919050565b7f4552433230566f7465733a20746f74616c20737570706c79207269736b73206f60008201527f766572666c6f77696e6720766f74657300000000000000000000000000000000602082015250565b600061334f603083612509565b915061335a826132f3565b604082019050919050565b6000602082019050818103600083015261337e81613342565b9050919050565b600060a08201905061339a60008301886126ad565b6133a760208301876126ad565b6133b460408301866126ad565b6133c160608301856125ef565b6133ce6080830184612704565b9695505050505050565b7f4e487b7100000000000000000000000000000000000000000000000000000000600052601260045260246000fd5b600061341282612488565b915061341d83612488565b92508261342d5761342c6133d8565b5b828204905092915050565b600060408201905061344d60008301856125ef565b61345a60208301846125ef565b9392505050565b600081905092915050565b7f1901000000000000000000000000000000000000000000000000000000000000600082015250565b60006134a2600283613461565b91506134ad8261346c565b600282019050919050565b6000819050919050565b6134d36134ce826126a3565b6134b8565b82525050565b60006134e482613495565b91506134f082856134c2565b60208201915061350082846134c2565b6020820191508190509392505050565b600060808201905061352560008301876126ad565b6135326020830186612679565b61353f60408301856126ad565b61354c60608301846126ad565b95945050505050565b7f4e487b7100000000000000000000000000000000000000000000000000000000600052602160045260246000fd5b7f45434453413a20696e76616c6964207369676e61747572650000000000000000600082015250565b60006135ba601883612509565b91506135c582613584565b602082019050919050565b600060208201905081810360008301526135e9816135ad565b9050919050565b7f45434453413a20696e76616c6964207369676e6174757265206c656e67746800600082015250565b6000613626601f83612509565b9150613631826135f0565b602082019050919050565b6000602082019050818103600083015261365581613619565b9050919050565b7f45434453413a20696e76616c6964207369676e6174757265202773272076616c60008201527f7565000000000000000000000000000000000000000000000000000000000000602082015250565b60006136b8602283612509565b91506136c38261365c565b604082019050919050565b600060208201905081810360008301526136e7816136ab565b9050919050565b7f45434453413a20696e76616c6964207369676e6174757265202776272076616c60008201527f7565000000000000000000000000000000000000000000000000000000000000602082015250565b600061374a602283612509565b9150613755826136ee565b604082019050919050565b600060208201905081810360008301526137798161373d565b9050919050565b7f45524332303a206d696e7420746f20746865207a65726f206164647265737300600082015250565b60006137b6601f83612509565b91506137c182613780565b602082019050919050565b600060208201905081810360008301526137e5816137a9565b9050919050565b7f53616665436173743a2076616c756520646f65736e27742066697420696e203260008201527f3234206269747300000000000000000000000000000000000000000000000000602082015250565b6000613848602783612509565b9150613853826137ec565b604082019050919050565b600060208201905081810360008301526138778161383b565b905091905056fea2646970667358221220633b760836a1e00a12ee76cd0ddcf03898d963a88f9eb62d793d9544d133e34564736f6c634300080a0033",
  "immutableReferences": {
    "2929": [
      {
        "length": 32,
        "start": 3526
      }
    ],
    "4312": [
      {
        "length": 32,
        "start": 5437
      }
    ],
    "4314": [
      {
        "length": 32,
        "start": 5396
      }
    ],
    "4316": [
      {
        "length": 32,
        "start": 5310
      }
    ],
    "4318": [
      {
        "length": 32,
        "start": 5513
      }
    ],
    "4320": [
      {
        "length": 32,
        "start": 5546
      }
    ],
    "4322": [
      {
        "length": 32,
        "start": 5480
      }
    ]
  },
  "source": "// SPDX-License-Identifier: MIT\npragma solidity ^0.8.2;\n\nimport \"@openzeppelin/contracts/token/ERC20/ERC20.sol\";\nimport \"@openzeppelin/contracts/token/ERC20/extensions/draft-ERC20Permit.sol\";\nimport \"@openzeppelin/contracts/token/ERC20/extensions/ERC20Votes.sol\";\n\ncontract MyToken is ERC20, ERC20Permit, ERC20Votes {\n    constructor() ERC20(\"EVIDAO\", \"EVI\") ERC20Permit(\"MyToken\") {}\n\n    // The functions below are overrides required by Solidity.\n\n    function _afterTokenTransfer(address from, address to, uint256 amount)\n        internal\n        override(ERC20, ERC20Votes)\n    {\n        super._afterTokenTransfer(from, to, amount);\n    }\n\n    function _mint(address to, uint256 amount)\n        internal virtual\n        override(ERC20, ERC20Votes)\n    {\n        super._mint(to, amount);\n    }\n\n    function testmint(address to, uint256 amount)\n        external\n    {\n        _mint(to, amount);\n    }\n\n    function _burn(address account, uint256 amount)\n        internal\n        override(ERC20, ERC20Votes)\n    {\n        super._burn(account, amount);\n    }\n}\n",
  "sourcePath": "/Users/dm/Documents/wishbone/EVI-governance/contracts/token.sol",
  "compiler": {
    "name": "solc",
    "version": "0.8.10+commit.fc410830.Emscripten.clang"
  },
  "schemaVersion": "3.4.3",
  "updatedAt": "2022-02-03T18:35:06.435Z",
  "networkType": "ethereum",
  "devdoc": {
    "kind": "dev",
    "methods": {
      "DOMAIN_SEPARATOR()": {
        "details": "See {IERC20Permit-DOMAIN_SEPARATOR}."
      },
      "allowance(address,address)": {
        "details": "See {IERC20-allowance}."
      },
      "approve(address,uint256)": {
        "details": "See {IERC20-approve}. Requirements: - `spender` cannot be the zero address."
      },
      "balanceOf(address)": {
        "details": "See {IERC20-balanceOf}."
      },
      "checkpoints(address,uint32)": {
        "details": "Get the `pos`-th checkpoint for `account`."
      },
      "decimals()": {
        "details": "Returns the number of decimals used to get its user representation. For example, if `decimals` equals `2`, a balance of `505` tokens should be displayed to a user as `5.05` (`505 / 10 ** 2`). Tokens usually opt for a value of 18, imitating the relationship between Ether and Wei. This is the value {ERC20} uses, unless this function is overridden; NOTE: This information is only used for _display_ purposes: it in no way affects any of the arithmetic of the contract, including {IERC20-balanceOf} and {IERC20-transfer}."
      },
      "decreaseAllowance(address,uint256)": {
        "details": "Atomically decreases the allowance granted to `spender` by the caller. This is an alternative to {approve} that can be used as a mitigation for problems described in {IERC20-approve}. Emits an {Approval} event indicating the updated allowance. Requirements: - `spender` cannot be the zero address. - `spender` must have allowance for the caller of at least `subtractedValue`."
      },
      "delegate(address)": {
        "details": "Delegate votes from the sender to `delegatee`."
      },
      "delegateBySig(address,uint256,uint256,uint8,bytes32,bytes32)": {
        "details": "Delegates votes from signer to `delegatee`"
      },
      "delegates(address)": {
        "details": "Get the address `account` is currently delegating to."
      },
      "getPastTotalSupply(uint256)": {
        "details": "Retrieve the `totalSupply` at the end of `blockNumber`. Note, this value is the sum of all balances. It is but NOT the sum of all the delegated votes! Requirements: - `blockNumber` must have been already mined"
      },
      "getPastVotes(address,uint256)": {
        "details": "Retrieve the number of votes for `account` at the end of `blockNumber`. Requirements: - `blockNumber` must have been already mined"
      },
      "getVotes(address)": {
        "details": "Gets the current votes balance for `account`"
      },
      "increaseAllowance(address,uint256)": {
        "details": "Atomically increases the allowance granted to `spender` by the caller. This is an alternative to {approve} that can be used as a mitigation for problems described in {IERC20-approve}. Emits an {Approval} event indicating the updated allowance. Requirements: - `spender` cannot be the zero address."
      },
      "name()": {
        "details": "Returns the name of the token."
      },
      "nonces(address)": {
        "details": "See {IERC20Permit-nonces}."
      },
      "numCheckpoints(address)": {
        "details": "Get number of checkpoints for `account`."
      },
      "permit(address,address,uint256,uint256,uint8,bytes32,bytes32)": {
        "details": "See {IERC20Permit-permit}."
      },
      "symbol()": {
        "details": "Returns the symbol of the token, usually a shorter version of the name."
      },
      "totalSupply()": {
        "details": "See {IERC20-totalSupply}."
      },
      "transfer(address,uint256)": {
        "details": "See {IERC20-transfer}. Requirements: - `recipient` cannot be the zero address. - the caller must have a balance of at least `amount`."
      },
      "transferFrom(address,address,uint256)": {
        "details": "See {IERC20-transferFrom}. Emits an {Approval} event indicating the updated allowance. This is not required by the EIP. See the note at the beginning of {ERC20}. Requirements: - `sender` and `recipient` cannot be the zero address. - `sender` must have a balance of at least `amount`. - the caller must have allowance for ``sender``'s tokens of at least `amount`."
      }
    },
    "version": 1
  },
  "userdoc": {
    "kind": "user",
    "methods": {},
    "version": 1
  }
}