{
  "_format": "hh-sol-artifact-1",
  "contractName": "CDPTrackerLike",
  "sourceName": "contracts/Executor.sol",
  "abi": [
    {
      "inputs": [
        {
          "internalType": "uint256",
          "name": "StabilityFee",
          "type": "uint256"
        }
      ],
      "name": "setInterest",
      "outputs": [],
      "stateMutability": "nonpayable",
      "type": "function"
    }
  ],
  "bytecode": "0x608060405234801561001057600080fd5b5060dc8061001f6000396000f3fe6080604052348015600f57600080fd5b506004361060285760003560e01c80631d08672014602d575b600080fd5b60436004803603810190603f9190607e565b6045565b005b50565b600080fd5b6000819050919050565b605e81604d565b8114606857600080fd5b50565b6000813590506078816057565b92915050565b60006020828403121560915760906048565b5b6000609d84828501606b565b9150509291505056fea26469706673582212208ab9b5e9246c0ece8bee510bbf23edc9bb1f40ece0d840d14cdb9f2e6eedc68c64736f6c63430008090033",
  "linkReferences": {},
  "deployedLinkReferences": {}
}