{
  "_format": "hh-sol-artifact-1",
  "contractName": "CoinLike",
  "sourceName": "contracts/Executor.sol",
  "abi": [
    {
      "inputs": [
        {
          "internalType": "address",
          "name": "account",
          "type": "address"
        }
      ],
      "name": "addAuthorization",
      "outputs": [],
      "stateMutability": "nonpayable",
      "type": "function"
    },
    {
      "inputs": [
        {
          "internalType": "address",
          "name": "",
          "type": "address"
        },
        {
          "internalType": "address",
          "name": "",
          "type": "address"
        }
      ],
      "name": "allowance",
      "outputs": [
        {
          "internalType": "uint256",
          "name": "",
          "type": "uint256"
        }
      ],
      "stateMutability": "view",
      "type": "function"
    },
    {
      "inputs": [
        {
          "internalType": "address",
          "name": "usr",
          "type": "address"
        },
        {
          "internalType": "uint256",
          "name": "amount",
          "type": "uint256"
        }
      ],
      "name": "approve",
      "outputs": [
        {
          "internalType": "bool",
          "name": "",
          "type": "bool"
        }
      ],
      "stateMutability": "nonpayable",
      "type": "function"
    },
    {
      "inputs": [
        {
          "internalType": "address",
          "name": "",
          "type": "address"
        }
      ],
      "name": "balanceOf",
      "outputs": [
        {
          "internalType": "uint256",
          "name": "",
          "type": "uint256"
        }
      ],
      "stateMutability": "view",
      "type": "function"
    },
    {
      "inputs": [
        {
          "internalType": "address",
          "name": "usr",
          "type": "address"
        },
        {
          "internalType": "uint256",
          "name": "amount",
          "type": "uint256"
        }
      ],
      "name": "burn",
      "outputs": [],
      "stateMutability": "nonpayable",
      "type": "function"
    },
    {
      "inputs": [
        {
          "internalType": "address",
          "name": "usr",
          "type": "address"
        },
        {
          "internalType": "uint256",
          "name": "amount",
          "type": "uint256"
        }
      ],
      "name": "mint",
      "outputs": [],
      "stateMutability": "nonpayable",
      "type": "function"
    },
    {
      "inputs": [
        {
          "internalType": "address",
          "name": "src",
          "type": "address"
        },
        {
          "internalType": "address",
          "name": "dst",
          "type": "address"
        },
        {
          "internalType": "uint256",
          "name": "amount",
          "type": "uint256"
        }
      ],
      "name": "move",
      "outputs": [],
      "stateMutability": "nonpayable",
      "type": "function"
    },
    {
      "inputs": [
        {
          "internalType": "address",
          "name": "",
          "type": "address"
        }
      ],
      "name": "nonces",
      "outputs": [
        {
          "internalType": "uint256",
          "name": "",
          "type": "uint256"
        }
      ],
      "stateMutability": "view",
      "type": "function"
    },
    {
      "inputs": [
        {
          "internalType": "address",
          "name": "holder",
          "type": "address"
        },
        {
          "internalType": "address",
          "name": "spender",
          "type": "address"
        },
        {
          "internalType": "uint256",
          "name": "nonce",
          "type": "uint256"
        },
        {
          "internalType": "uint256",
          "name": "expiry",
          "type": "uint256"
        },
        {
          "internalType": "bool",
          "name": "allowed",
          "type": "bool"
        },
        {
          "internalType": "uint8",
          "name": "v",
          "type": "uint8"
        },
        {
          "internalType": "bytes32",
          "name": "r",
          "type": "bytes32"
        },
        {
          "internalType": "bytes32",
          "name": "s",
          "type": "bytes32"
        }
      ],
      "name": "permit",
      "outputs": [],
      "stateMutability": "nonpayable",
      "type": "function"
    },
    {
      "inputs": [
        {
          "internalType": "address",
          "name": "usr",
          "type": "address"
        },
        {
          "internalType": "uint256",
          "name": "amount",
          "type": "uint256"
        }
      ],
      "name": "pull",
      "outputs": [],
      "stateMutability": "nonpayable",
      "type": "function"
    },
    {
      "inputs": [
        {
          "internalType": "address",
          "name": "usr",
          "type": "address"
        },
        {
          "internalType": "uint256",
          "name": "amount",
          "type": "uint256"
        }
      ],
      "name": "push",
      "outputs": [],
      "stateMutability": "nonpayable",
      "type": "function"
    },
    {
      "inputs": [
        {
          "internalType": "address",
          "name": "account",
          "type": "address"
        }
      ],
      "name": "removeAuthorization",
      "outputs": [],
      "stateMutability": "nonpayable",
      "type": "function"
    },
    {
      "inputs": [
        {
          "internalType": "address",
          "name": "dst",
          "type": "address"
        },
        {
          "internalType": "uint256",
          "name": "amount",
          "type": "uint256"
        }
      ],
      "name": "transfer",
      "outputs": [
        {
          "internalType": "bool",
          "name": "",
          "type": "bool"
        }
      ],
      "stateMutability": "nonpayable",
      "type": "function"
    },
    {
      "inputs": [
        {
          "internalType": "address",
          "name": "src",
          "type": "address"
        },
        {
          "internalType": "address",
          "name": "dst",
          "type": "address"
        },
        {
          "internalType": "uint256",
          "name": "amount",
          "type": "uint256"
        }
      ],
      "name": "transferFrom",
      "outputs": [
        {
          "internalType": "bool",
          "name": "",
          "type": "bool"
        }
      ],
      "stateMutability": "nonpayable",
      "type": "function"
    }
  ],
  "bytecode": "0x608060405234801561001057600080fd5b50610702806100206000396000f3fe608060405234801561001057600080fd5b50600436106100ea5760003560e01c806394f3f81d1161008c578063b753a98c11610066578063b753a98c1461026b578063bb35783b14610287578063dd62ed3e146102a3578063f2d5d56b146102d3576100ea565b806394f3f81d146102035780639dc29fac1461021f578063a9059cbb1461023b576100ea565b806340c10f19116100c857806340c10f191461016b57806370a08231146101875780637ecebe00146101b75780638fcbaf0c146101e7576100ea565b8063095ea7b3146100ef57806323b872dd1461011f57806335b281531461014f575b600080fd5b6101096004803603810190610104919061041b565b6102ef565b6040516101169190610476565b60405180910390f35b61013960048036038101906101349190610491565b6102f7565b6040516101469190610476565b60405180910390f35b610169600480360381019061016491906104e4565b610300565b005b6101856004803603810190610180919061041b565b610303565b005b6101a1600480360381019061019c91906104e4565b610307565b6040516101ae9190610520565b60405180910390f35b6101d160048036038101906101cc91906104e4565b61031f565b6040516101de9190610520565b60405180910390f35b61020160048036038101906101fc91906105d6565b610337565b005b61021d600480360381019061021891906104e4565b610341565b005b6102396004803603810190610234919061041b565b610344565b005b6102556004803603810190610250919061041b565b610348565b6040516102629190610476565b60405180910390f35b6102856004803603810190610280919061041b565b610350565b005b6102a1600480360381019061029c9190610491565b610354565b005b6102bd60048036038101906102b8919061068c565b610359565b6040516102ca9190610520565b60405180910390f35b6102ed60048036038101906102e8919061041b565b61037e565b005b600092915050565b60009392505050565b50565b5050565b60006020528060005260406000206000915090505481565b60026020528060005260406000206000915090505481565b5050505050505050565b50565b5050565b600092915050565b5050565b505050565b6001602052816000526040600020602052806000526040600020600091509150505481565b5050565b600080fd5b600073ffffffffffffffffffffffffffffffffffffffff82169050919050565b60006103b282610387565b9050919050565b6103c2816103a7565b81146103cd57600080fd5b50565b6000813590506103df816103b9565b92915050565b6000819050919050565b6103f8816103e5565b811461040357600080fd5b50565b600081359050610415816103ef565b92915050565b6000806040838503121561043257610431610382565b5b6000610440858286016103d0565b925050602061045185828601610406565b9150509250929050565b60008115159050919050565b6104708161045b565b82525050565b600060208201905061048b6000830184610467565b92915050565b6000806000606084860312156104aa576104a9610382565b5b60006104b8868287016103d0565b93505060206104c9868287016103d0565b92505060406104da86828701610406565b9150509250925092565b6000602082840312156104fa576104f9610382565b5b6000610508848285016103d0565b91505092915050565b61051a816103e5565b82525050565b60006020820190506105356000830184610511565b92915050565b6105448161045b565b811461054f57600080fd5b50565b6000813590506105618161053b565b92915050565b600060ff82169050919050565b61057d81610567565b811461058857600080fd5b50565b60008135905061059a81610574565b92915050565b6000819050919050565b6105b3816105a0565b81146105be57600080fd5b50565b6000813590506105d0816105aa565b92915050565b600080600080600080600080610100898b0312156105f7576105f6610382565b5b60006106058b828c016103d0565b98505060206106168b828c016103d0565b97505060406106278b828c01610406565b96505060606106388b828c01610406565b95505060806106498b828c01610552565b94505060a061065a8b828c0161058b565b93505060c061066b8b828c016105c1565b92505060e061067c8b828c016105c1565b9150509295985092959890939650565b600080604083850312156106a3576106a2610382565b5b60006106b1858286016103d0565b92505060206106c2858286016103d0565b915050925092905056fea2646970667358221220993cf17a5efc4a7eea97e0d80e2b65a349a94922580fbcab61197d6c0d6d98cf64736f6c63430008090033",
  "linkReferences": {},
  "deployedLinkReferences": {}
}