{
  "_format": "hh-sol-artifact-1",
  "contractName": "Executor",
  "sourceName": "contracts/Executor.sol",
  "abi": [
    {
      "inputs": [],
      "stateMutability": "nonpayable",
      "type": "constructor"
    },
    {
      "anonymous": false,
      "inputs": [
        {
          "indexed": false,
          "internalType": "address",
          "name": "account",
          "type": "address"
        }
      ],
      "name": "AddAuthorization",
      "type": "event"
    },
    {
      "anonymous": false,
      "inputs": [],
      "name": "MockFunctionCalled",
      "type": "event"
    },
    {
      "anonymous": false,
      "inputs": [
        {
          "indexed": false,
          "internalType": "uint256",
          "name": "a",
          "type": "uint256"
        },
        {
          "indexed": false,
          "internalType": "uint256",
          "name": "b",
          "type": "uint256"
        }
      ],
      "name": "MockFunctionCalledWithArgs",
      "type": "event"
    },
    {
      "anonymous": false,
      "inputs": [
        {
          "indexed": false,
          "internalType": "address",
          "name": "account",
          "type": "address"
        }
      ],
      "name": "RemoveAuthorization",
      "type": "event"
    },
    {
      "inputs": [
        {
          "internalType": "address",
          "name": "dest",
          "type": "address"
        },
        {
          "internalType": "uint256",
          "name": "amount",
          "type": "uint256"
        }
      ],
      "name": "TransferFunds",
      "outputs": [
        {
          "internalType": "bool",
          "name": "",
          "type": "bool"
        }
      ],
      "stateMutability": "payable",
      "type": "function"
    },
    {
      "inputs": [
        {
          "internalType": "address",
          "name": "account",
          "type": "address"
        }
      ],
      "name": "addAuthorization",
      "outputs": [],
      "stateMutability": "nonpayable",
      "type": "function"
    },
    {
      "inputs": [
        {
          "internalType": "address",
          "name": "",
          "type": "address"
        }
      ],
      "name": "authorizedAccounts",
      "outputs": [
        {
          "internalType": "uint256",
          "name": "",
          "type": "uint256"
        }
      ],
      "stateMutability": "view",
      "type": "function"
    },
    {
      "inputs": [],
      "name": "mockFunction",
      "outputs": [
        {
          "internalType": "string",
          "name": "",
          "type": "string"
        }
      ],
      "stateMutability": "payable",
      "type": "function"
    },
    {
      "inputs": [],
      "name": "mockFunctionNonPayable",
      "outputs": [
        {
          "internalType": "string",
          "name": "",
          "type": "string"
        }
      ],
      "stateMutability": "nonpayable",
      "type": "function"
    },
    {
      "inputs": [],
      "name": "mockFunctionOutOfGas",
      "outputs": [],
      "stateMutability": "payable",
      "type": "function"
    },
    {
      "inputs": [],
      "name": "mockFunctionRevertsNoReason",
      "outputs": [],
      "stateMutability": "payable",
      "type": "function"
    },
    {
      "inputs": [],
      "name": "mockFunctionRevertsReason",
      "outputs": [],
      "stateMutability": "payable",
      "type": "function"
    },
    {
      "inputs": [],
      "name": "mockFunctionThrows",
      "outputs": [],
      "stateMutability": "payable",
      "type": "function"
    },
    {
      "inputs": [
        {
          "internalType": "uint256",
          "name": "a",
          "type": "uint256"
        },
        {
          "internalType": "uint256",
          "name": "b",
          "type": "uint256"
        }
      ],
      "name": "mockFunctionWithArgs",
      "outputs": [
        {
          "internalType": "string",
          "name": "",
          "type": "string"
        }
      ],
      "stateMutability": "payable",
      "type": "function"
    },
    {
      "inputs": [],
      "name": "mockFunctionWritesStorage",
      "outputs": [
        {
          "internalType": "string",
          "name": "",
          "type": "string"
        }
      ],
      "stateMutability": "nonpayable",
      "type": "function"
    },
    {
      "inputs": [],
      "name": "mockStaticFunction",
      "outputs": [
        {
          "internalType": "string",
          "name": "",
          "type": "string"
        }
      ],
      "stateMutability": "pure",
      "type": "function"
    },
    {
      "inputs": [
        {
          "internalType": "address",
          "name": "account",
          "type": "address"
        }
      ],
      "name": "removeAuthorization",
      "outputs": [],
      "stateMutability": "nonpayable",
      "type": "function"
    },
    {
      "inputs": [
        {
          "internalType": "address",
          "name": "CDPaddr",
          "type": "address"
        }
      ],
      "name": "setCDP",
      "outputs": [],
      "stateMutability": "nonpayable",
      "type": "function"
    },
    {
      "inputs": [
        {
          "internalType": "address",
          "name": "STABLE",
          "type": "address"
        }
      ],
      "name": "setCoin",
      "outputs": [],
      "stateMutability": "nonpayable",
      "type": "function"
    },
    {
      "inputs": [
        {
          "internalType": "uint256",
          "name": "newInterest",
          "type": "uint256"
        }
      ],
      "name": "setInterest",
      "outputs": [
        {
          "internalType": "bool",
          "name": "",
          "type": "bool"
        }
      ],
      "stateMutability": "nonpayable",
      "type": "function"
    },
    {
      "inputs": [],
      "name": "sharedAnswer",
      "outputs": [
        {
          "internalType": "string",
          "name": "",
          "type": "string"
        }
      ],
      "stateMutability": "view",
      "type": "function"
    }
  ],
  "bytecode": "0x608060405234801561001057600080fd5b5060016000803373ffffffffffffffffffffffffffffffffffffffff1673ffffffffffffffffffffffffffffffffffffffff16815260200190815260200160002081905550611437806100646000396000f3fe6080604052600436106100fe5760003560e01c80636ac06cab11610095578063aa04f77e11610064578063aa04f77e14610292578063c8fc7696146102bd578063c95f8b91146102e8578063fc40cf7314610318578063fdb2732514610343576100fe565b80636ac06cab1461020d57806382e46b751461023657806394f3f81d1461025f578063a793ab4714610288576100fe565b80632c81d638116100d15780632c81d638146101b257806335b28153146101bc5780633bcfaa14146101e55780633e6fec04146101ef576100fe565b80630c034968146101035780630f63e42c1461010d5780631d0867201461013857806324ba588414610175575b600080fd5b61010b610373565b005b34801561011957600080fd5b506101226103ae565b60405161012f9190610ea9565b60405180910390f35b34801561014457600080fd5b5061015f600480360381019061015a9190610f06565b610417565b60405161016c9190610f4e565b60405180910390f35b34801561018157600080fd5b5061019c60048036038101906101979190610fc7565b610536565b6040516101a99190611003565b60405180910390f35b6101ba61054e565b005b3480156101c857600080fd5b506101e360048036038101906101de9190610fc7565b610553565b005b6101ed610652565b005b6101f7610663565b6040516102049190610ea9565b60405180910390f35b34801561021957600080fd5b50610234600480360381019061022f9190610fc7565b6106cc565b005b34801561024257600080fd5b5061025d60048036038101906102589190610fc7565b610791565b005b34801561026b57600080fd5b5061028660048036038101906102819190610fc7565b610856565b005b610290610955565b005b34801561029e57600080fd5b506102a7610992565b6040516102b49190610ea9565b60405180910390f35b3480156102c957600080fd5b506102d2610a1b565b6040516102df9190610ea9565b60405180910390f35b61030260048036038101906102fd919061101e565b610a58565b60405161030f9190610f4e565b60405180910390f35b34801561032457600080fd5b5061032d610c66565b60405161033a9190610ea9565b60405180910390f35b61035d6004803603810190610358919061105e565b610cf4565b60405161036a9190610ea9565b60405180910390f35b6040517f08c379a00000000000000000000000000000000000000000000000000000000081526004016103a5906110ea565b60405180910390fd5b60607f52c66ed6ec9ca819cba26fe2b2650059270d8981b295af300187a964f54a8c2360405160405180910390a16040518060400160405280600681526020017f3078313233340000000000000000000000000000000000000000000000000000815250905090565b600060016000803373ffffffffffffffffffffffffffffffffffffffff1673ffffffffffffffffffffffffffffffffffffffff168152602001908152602001600020541461049a576040517f08c379a000000000000000000000000000000000000000000000000000000000815260040161049190611156565b60405180910390fd5b6000600160009054906101000a900473ffffffffffffffffffffffffffffffffffffffff1690508073ffffffffffffffffffffffffffffffffffffffff16631d086720846040518263ffffffff1660e01b81526004016104fa9190611003565b600060405180830381600087803b15801561051457600080fd5b505af1158015610528573d6000803e3d6000fd5b505050506001915050919050565b60006020528060005260406000206000915090505481565b600080fd5b60016000803373ffffffffffffffffffffffffffffffffffffffff1673ffffffffffffffffffffffffffffffffffffffff16815260200190815260200160002054146105d4576040517f08c379a00000000000000000000000000000000000000000000000000000000081526004016105cb90611156565b60405180910390fd5b60016000808373ffffffffffffffffffffffffffffffffffffffff1673ffffffffffffffffffffffffffffffffffffffff168152602001908152602001600020819055507f599a298163e1678bb1c676052a8930bf0b8a1261ed6e01b8a2391e55f7000102816040516106479190611185565b60405180910390a150565b6000610661576106606111a0565b5b565b60607f52c66ed6ec9ca819cba26fe2b2650059270d8981b295af300187a964f54a8c2360405160405180910390a16040518060400160405280600681526020017f3078313233340000000000000000000000000000000000000000000000000000815250905090565b60016000803373ffffffffffffffffffffffffffffffffffffffff1673ffffffffffffffffffffffffffffffffffffffff168152602001908152602001600020541461074d576040517f08c379a000000000000000000000000000000000000000000000000000000000815260040161074490611156565b60405180910390fd5b80600160006101000a81548173ffffffffffffffffffffffffffffffffffffffff021916908373ffffffffffffffffffffffffffffffffffffffff16021790555050565b60016000803373ffffffffffffffffffffffffffffffffffffffff1673ffffffffffffffffffffffffffffffffffffffff1681526020019081526020016000205414610812576040517f08c379a000000000000000000000000000000000000000000000000000000000815260040161080990611156565b60405180910390fd5b80600260006101000a81548173ffffffffffffffffffffffffffffffffffffffff021916908373ffffffffffffffffffffffffffffffffffffffff16021790555050565b60016000803373ffffffffffffffffffffffffffffffffffffffff1673ffffffffffffffffffffffffffffffffffffffff16815260200190815260200160002054146108d7576040517f08c379a00000000000000000000000000000000000000000000000000000000081526004016108ce90611156565b60405180910390fd5b60008060008373ffffffffffffffffffffffffffffffffffffffff1673ffffffffffffffffffffffffffffffffffffffff168152602001908152602001600020819055507f8834a87e641e9716be4f34527af5d23e11624f1ddeefede6ad75a9acfc31b9038160405161094a9190611185565b60405180910390a150565b60005b60048190806001815401808255809150506001900390600052602060002001600090919091909150558061098b906111fe565b9050610958565b60606040518060400160405280600281526020017f3432000000000000000000000000000000000000000000000000000000000000815250600390805190602001906109df929190610d6d565b506040518060400160405280600681526020017f3078313233340000000000000000000000000000000000000000000000000000815250905090565b60606040518060400160405280600681526020017f3078313233340000000000000000000000000000000000000000000000000000815250905090565b600060016000803373ffffffffffffffffffffffffffffffffffffffff1673ffffffffffffffffffffffffffffffffffffffff1681526020019081526020016000205414610adb576040517f08c379a0000000000000000000000000000000000000000000000000000000008152600401610ad290611156565b60405180910390fd5b6000600260009054906101000a900473ffffffffffffffffffffffffffffffffffffffff169050828173ffffffffffffffffffffffffffffffffffffffff166370a08231306040518263ffffffff1660e01b8152600401610b3c9190611185565b60206040518083038186803b158015610b5457600080fd5b505afa158015610b68573d6000803e3d6000fd5b505050506040513d601f19601f82011682018060405250810190610b8c919061125c565b1015610bcd576040517f08c379a0000000000000000000000000000000000000000000000000000000008152600401610bc4906112d5565b60405180910390fd5b8073ffffffffffffffffffffffffffffffffffffffff1663a9059cbb85856040518363ffffffff1660e01b8152600401610c089291906112f5565b602060405180830381600087803b158015610c2257600080fd5b505af1158015610c36573d6000803e3d6000fd5b505050506040513d601f19601f82011682018060405250810190610c5a919061134a565b50600191505092915050565b60038054610c73906113a6565b80601f0160208091040260200160405190810160405280929190818152602001828054610c9f906113a6565b8015610cec5780601f10610cc157610100808354040283529160200191610cec565b820191906000526020600020905b815481529060010190602001808311610ccf57829003601f168201915b505050505081565b60607f2b42b3c9af4187c86225f201736204c7597312c830cb5c2537dff6ef24b946ae8383604051610d279291906113d8565b60405180910390a16040518060400160405280600681526020017f3078313233340000000000000000000000000000000000000000000000000000815250905092915050565b828054610d79906113a6565b90600052602060002090601f016020900481019282610d9b5760008555610de2565b82601f10610db457805160ff1916838001178555610de2565b82800160010185558215610de2579182015b82811115610de1578251825591602001919060010190610dc6565b5b509050610def9190610df3565b5090565b5b80821115610e0c576000816000905550600101610df4565b5090565b600081519050919050565b600082825260208201905092915050565b60005b83811015610e4a578082015181840152602081019050610e2f565b83811115610e59576000848401525b50505050565b6000601f19601f8301169050919050565b6000610e7b82610e10565b610e858185610e1b565b9350610e95818560208601610e2c565b610e9e81610e5f565b840191505092915050565b60006020820190508181036000830152610ec38184610e70565b905092915050565b600080fd5b6000819050919050565b610ee381610ed0565b8114610eee57600080fd5b50565b600081359050610f0081610eda565b92915050565b600060208284031215610f1c57610f1b610ecb565b5b6000610f2a84828501610ef1565b91505092915050565b60008115159050919050565b610f4881610f33565b82525050565b6000602082019050610f636000830184610f3f565b92915050565b600073ffffffffffffffffffffffffffffffffffffffff82169050919050565b6000610f9482610f69565b9050919050565b610fa481610f89565b8114610faf57600080fd5b50565b600081359050610fc181610f9b565b92915050565b600060208284031215610fdd57610fdc610ecb565b5b6000610feb84828501610fb2565b91505092915050565b610ffd81610ed0565b82525050565b60006020820190506110186000830184610ff4565b92915050565b6000806040838503121561103557611034610ecb565b5b600061104385828601610fb2565b925050602061105485828601610ef1565b9150509250929050565b6000806040838503121561107557611074610ecb565b5b600061108385828601610ef1565b925050602061109485828601610ef1565b9150509250929050565b7f43616c6c52656365697665724d6f636b3a20726576657274696e670000000000600082015250565b60006110d4601b83610e1b565b91506110df8261109e565b602082019050919050565b60006020820190508181036000830152611103816110c7565b9050919050565b7f436f696e2f6163636f756e742d6e6f742d617574686f72697a65640000000000600082015250565b6000611140601b83610e1b565b915061114b8261110a565b602082019050919050565b6000602082019050818103600083015261116f81611133565b9050919050565b61117f81610f89565b82525050565b600060208201905061119a6000830184611176565b92915050565b7f4e487b7100000000000000000000000000000000000000000000000000000000600052600160045260246000fd5b7f4e487b7100000000000000000000000000000000000000000000000000000000600052601160045260246000fd5b600061120982610ed0565b91507fffffffffffffffffffffffffffffffffffffffffffffffffffffffffffffffff82141561123c5761123b6111cf565b5b600182019050919050565b60008151905061125681610eda565b92915050565b60006020828403121561127257611271610ecb565b5b600061128084828501611247565b91505092915050565b7f496e73756666696369656e742054726561737572792052657365727665730000600082015250565b60006112bf601e83610e1b565b91506112ca82611289565b602082019050919050565b600060208201905081810360008301526112ee816112b2565b9050919050565b600060408201905061130a6000830185611176565b6113176020830184610ff4565b9392505050565b61132781610f33565b811461133257600080fd5b50565b6000815190506113448161131e565b92915050565b6000602082840312156113605761135f610ecb565b5b600061136e84828501611335565b91505092915050565b7f4e487b7100000000000000000000000000000000000000000000000000000000600052602260045260246000fd5b600060028204905060018216806113be57607f821691505b602082108114156113d2576113d1611377565b5b50919050565b60006040820190506113ed6000830185610ff4565b6113fa6020830184610ff4565b939250505056fea2646970667358221220fbe04dae1514d137a6486c2684f10c8ac40d3cdefce12194589f84fa921a264864736f6c63430008090033",
  "linkReferences": {},
  "deployedLinkReferences": {}
}