{
  "contractName": "CallReceiverMock",
  "abi": [
    {
      "anonymous": false,
      "inputs": [],
      "name": "MockFunctionCalled",
      "type": "event"
    },
    {
      "anonymous": false,
      "inputs": [
        {
          "indexed": false,
          "internalType": "uint256",
          "name": "a",
          "type": "uint256"
        },
        {
          "indexed": false,
          "internalType": "uint256",
          "name": "b",
          "type": "uint256"
        }
      ],
      "name": "MockFunctionCalledWithArgs",
      "type": "event"
    },
    {
      "inputs": [],
      "name": "sharedAnswer",
      "outputs": [
        {
          "internalType": "string",
          "name": "",
          "type": "string"
        }
      ],
      "stateMutability": "view",
      "type": "function",
      "constant": true
    },
    {
      "inputs": [],
      "name": "mockFunction",
      "outputs": [
        {
          "internalType": "string",
          "name": "",
          "type": "string"
        }
      ],
      "stateMutability": "payable",
      "type": "function",
      "payable": true
    },
    {
      "inputs": [
        {
          "internalType": "uint256",
          "name": "a",
          "type": "uint256"
        },
        {
          "internalType": "uint256",
          "name": "b",
          "type": "uint256"
        }
      ],
      "name": "mockFunctionWithArgs",
      "outputs": [
        {
          "internalType": "string",
          "name": "",
          "type": "string"
        }
      ],
      "stateMutability": "payable",
      "type": "function",
      "payable": true
    },
    {
      "inputs": [],
      "name": "mockFunctionNonPayable",
      "outputs": [
        {
          "internalType": "string",
          "name": "",
          "type": "string"
        }
      ],
      "stateMutability": "nonpayable",
      "type": "function"
    },
    {
      "inputs": [],
      "name": "mockStaticFunction",
      "outputs": [
        {
          "internalType": "string",
          "name": "",
          "type": "string"
        }
      ],
      "stateMutability": "pure",
      "type": "function",
      "constant": true
    },
    {
      "inputs": [],
      "name": "mockFunctionRevertsNoReason",
      "outputs": [],
      "stateMutability": "payable",
      "type": "function",
      "payable": true
    },
    {
      "inputs": [],
      "name": "mockFunctionRevertsReason",
      "outputs": [],
      "stateMutability": "payable",
      "type": "function",
      "payable": true
    },
    {
      "inputs": [],
      "name": "mockFunctionThrows",
      "outputs": [],
      "stateMutability": "payable",
      "type": "function",
      "payable": true
    },
    {
      "inputs": [],
      "name": "mockFunctionOutOfGas",
      "outputs": [],
      "stateMutability": "payable",
      "type": "function",
      "payable": true
    },
    {
      "inputs": [],
      "name": "mockFunctionWritesStorage",
      "outputs": [
        {
          "internalType": "string",
          "name": "",
          "type": "string"
        }
      ],
      "stateMutability": "nonpayable",
      "type": "function"
    }
  ],
  "bytecode": "0x608060405234801561001057600080fd5b5061088e806100206000396000f3fe6080604052600436106100915760003560e01c8063a793ab4711610059578063a793ab47146100fd578063aa04f77e14610107578063c8fc769614610132578063fc40cf731461015d578063fdb273251461018857610091565b80630c034968146100965780630f63e42c146100a05780632c81d638146100cb5780633bcfaa14146100d55780633e6fec04146100df575b600080fd5b61009e6101b8565b005b3480156100ac57600080fd5b506100b56101f3565b6040516100c2919061066a565b60405180910390f35b6100d361025c565b005b6100dd610261565b005b6100e7610298565b6040516100f4919061066a565b60405180910390f35b610105610301565b005b34801561011357600080fd5b5061011c61033e565b604051610129919061066a565b60405180910390f35b34801561013e57600080fd5b506101476103c7565b604051610154919061066a565b60405180910390f35b34801561016957600080fd5b50610172610404565b60405161017f919061066a565b60405180910390f35b6101a2600480360381019061019d91906105c3565b610492565b6040516101af919061066a565b60405180910390f35b6040517f08c379a00000000000000000000000000000000000000000000000000000000081526004016101ea9061068c565b60405180910390fd5b60607f52c66ed6ec9ca819cba26fe2b2650059270d8981b295af300187a964f54a8c2360405160405180910390a16040518060400160405280600681526020017f3078313233340000000000000000000000000000000000000000000000000000815250905090565b600080fd5b6000610296577f4e487b7100000000000000000000000000000000000000000000000000000000600052600160045260246000fd5b565b60607f52c66ed6ec9ca819cba26fe2b2650059270d8981b295af300187a964f54a8c2360405160405180910390a16040518060400160405280600681526020017f3078313233340000000000000000000000000000000000000000000000000000815250905090565b60005b60018190806001815401808255809150506001900390600052602060002001600090919091909150558061033790610760565b9050610304565b60606040518060400160405280600281526020017f34320000000000000000000000000000000000000000000000000000000000008152506000908051906020019061038b92919061050b565b506040518060400160405280600681526020017f3078313233340000000000000000000000000000000000000000000000000000815250905090565b60606040518060400160405280600681526020017f3078313233340000000000000000000000000000000000000000000000000000815250905090565b600080546104119061072e565b80601f016020809104026020016040519081016040528092919081815260200182805461043d9061072e565b801561048a5780601f1061045f5761010080835404028352916020019161048a565b820191906000526020600020905b81548152906001019060200180831161046d57829003601f168201915b505050505081565b60607f2b42b3c9af4187c86225f201736204c7597312c830cb5c2537dff6ef24b946ae83836040516104c59291906106ac565b60405180910390a16040518060400160405280600681526020017f3078313233340000000000000000000000000000000000000000000000000000815250905092915050565b8280546105179061072e565b90600052602060002090601f0160209004810192826105395760008555610580565b82601f1061055257805160ff1916838001178555610580565b82800160010185558215610580579182015b8281111561057f578251825591602001919060010190610564565b5b50905061058d9190610591565b5090565b5b808211156105aa576000816000905550600101610592565b5090565b6000813590506105bd81610841565b92915050565b600080604083850312156105d657600080fd5b60006105e4858286016105ae565b92505060206105f5858286016105ae565b9150509250929050565b600061060a826106d5565b61061481856106e0565b93506106248185602086016106fb565b61062d81610807565b840191505092915050565b6000610645601b836106e0565b915061065082610818565b602082019050919050565b610664816106f1565b82525050565b6000602082019050818103600083015261068481846105ff565b905092915050565b600060208201905081810360008301526106a581610638565b9050919050565b60006040820190506106c1600083018561065b565b6106ce602083018461065b565b9392505050565b600081519050919050565b600082825260208201905092915050565b6000819050919050565b60005b838110156107195780820151818401526020810190506106fe565b83811115610728576000848401525b50505050565b6000600282049050600182168061074657607f821691505b6020821081141561075a576107596107d8565b5b50919050565b600061076b826106f1565b91507fffffffffffffffffffffffffffffffffffffffffffffffffffffffffffffffff82141561079e5761079d6107a9565b5b600182019050919050565b7f4e487b7100000000000000000000000000000000000000000000000000000000600052601160045260246000fd5b7f4e487b7100000000000000000000000000000000000000000000000000000000600052602260045260246000fd5b6000601f19601f8301169050919050565b7f43616c6c52656365697665724d6f636b3a20726576657274696e670000000000600082015250565b61084a816106f1565b811461085557600080fd5b5056fea26469706673582212204e7022a240f2db111ddca348e79ff569b36595497498df39ba45bc49b5527f5664736f6c63430008020033",
  "immutableReferences": {},
  "source": "// SPDX-License-Identifier: MIT\n\npragma solidity ^0.8.0;\n\ncontract CallReceiverMock {\n    string public sharedAnswer;\n\n    event MockFunctionCalled();\n    event MockFunctionCalledWithArgs(uint256 a, uint256 b);\n\n    uint256[] private _array;\n\n    function mockFunction() public payable returns (string memory) {\n        emit MockFunctionCalled();\n\n        return \"0x1234\";\n    }\n\n    function mockFunctionWithArgs(uint256 a, uint256 b) public payable returns (string memory) {\n        emit MockFunctionCalledWithArgs(a, b);\n\n        return \"0x1234\";\n    }\n\n    function mockFunctionNonPayable() public returns (string memory) {\n        emit MockFunctionCalled();\n\n        return \"0x1234\";\n    }\n\n    function mockStaticFunction() public pure returns (string memory) {\n        return \"0x1234\";\n    }\n\n    function mockFunctionRevertsNoReason() public payable {\n        revert();\n    }\n\n    function mockFunctionRevertsReason() public payable {\n        revert(\"CallReceiverMock: reverting\");\n    }\n\n    function mockFunctionThrows() public payable {\n        assert(false);\n    }\n\n    function mockFunctionOutOfGas() public payable {\n        for (uint256 i = 0; ; ++i) {\n            _array.push(i);\n        }\n    }\n\n    function mockFunctionWritesStorage() public returns (string memory) {\n        sharedAnswer = \"42\";\n        return \"0x1234\";\n    }\n}\n",
  "sourcePath": "/Users/dm/Documents/wishbone/tree3/evi-dao-2/contracts/CallReceiver.sol",
  "compiler": {
    "name": "solc",
    "version": "0.8.2+commit.661d1103.Emscripten.clang"
  },
  "schemaVersion": "3.4.3",
  "updatedAt": "2022-02-06T19:21:49.498Z",
  "networkType": "ethereum",
  "devdoc": {
    "kind": "dev",
    "methods": {},
    "version": 1
  },
  "userdoc": {
    "kind": "user",
    "methods": {},
    "version": 1
  }
}