{
  "contractName": "EVIGov",
  "abi": [
    {
      "inputs": [
        {
          "internalType": "string",
          "name": "name_",
          "type": "string"
        },
        {
          "internalType": "contract ERC20Votes",
          "name": "token_",
          "type": "address"
        },
        {
          "internalType": "uint256",
          "name": "votingDelay_",
          "type": "uint256"
        },
        {
          "internalType": "uint256",
          "name": "votingPeriod_",
          "type": "uint256"
        },
        {
          "internalType": "uint256",
          "name": "quorumNumerator_",
          "type": "uint256"
        }
      ],
      "stateMutability": "nonpayable",
      "type": "constructor"
    },
    {
      "anonymous": false,
      "inputs": [
        {
          "indexed": false,
          "internalType": "uint256",
          "name": "proposalId",
          "type": "uint256"
        }
      ],
      "name": "ProposalCanceled",
      "type": "event"
    },
    {
      "anonymous": false,
      "inputs": [
        {
          "indexed": false,
          "internalType": "uint256",
          "name": "proposalId",
          "type": "uint256"
        },
        {
          "indexed": false,
          "internalType": "address",
          "name": "proposer",
          "type": "address"
        },
        {
          "indexed": false,
          "internalType": "address[]",
          "name": "targets",
          "type": "address[]"
        },
        {
          "indexed": false,
          "internalType": "uint256[]",
          "name": "values",
          "type": "uint256[]"
        },
        {
          "indexed": false,
          "internalType": "string[]",
          "name": "signatures",
          "type": "string[]"
        },
        {
          "indexed": false,
          "internalType": "bytes[]",
          "name": "calldatas",
          "type": "bytes[]"
        },
        {
          "indexed": false,
          "internalType": "uint256",
          "name": "startBlock",
          "type": "uint256"
        },
        {
          "indexed": false,
          "internalType": "uint256",
          "name": "endBlock",
          "type": "uint256"
        },
        {
          "indexed": false,
          "internalType": "string",
          "name": "description",
          "type": "string"
        }
      ],
      "name": "ProposalCreated",
      "type": "event"
    },
    {
      "anonymous": false,
      "inputs": [
        {
          "indexed": false,
          "internalType": "uint256",
          "name": "proposalId",
          "type": "uint256"
        }
      ],
      "name": "ProposalExecuted",
      "type": "event"
    },
    {
      "anonymous": false,
      "inputs": [
        {
          "indexed": false,
          "internalType": "uint256",
          "name": "oldProposalThreshold",
          "type": "uint256"
        },
        {
          "indexed": false,
          "internalType": "uint256",
          "name": "newProposalThreshold",
          "type": "uint256"
        }
      ],
      "name": "ProposalThresholdSet",
      "type": "event"
    },
    {
      "anonymous": false,
      "inputs": [
        {
          "indexed": false,
          "internalType": "uint256",
          "name": "oldQuorumNumerator",
          "type": "uint256"
        },
        {
          "indexed": false,
          "internalType": "uint256",
          "name": "newQuorumNumerator",
          "type": "uint256"
        }
      ],
      "name": "QuorumNumeratorUpdated",
      "type": "event"
    },
    {
      "anonymous": false,
      "inputs": [
        {
          "indexed": true,
          "internalType": "address",
          "name": "voter",
          "type": "address"
        },
        {
          "indexed": false,
          "internalType": "uint256",
          "name": "proposalId",
          "type": "uint256"
        },
        {
          "indexed": false,
          "internalType": "uint8",
          "name": "support",
          "type": "uint8"
        },
        {
          "indexed": false,
          "internalType": "uint256",
          "name": "weight",
          "type": "uint256"
        },
        {
          "indexed": false,
          "internalType": "string",
          "name": "reason",
          "type": "string"
        }
      ],
      "name": "VoteCast",
      "type": "event"
    },
    {
      "anonymous": false,
      "inputs": [
        {
          "indexed": false,
          "internalType": "uint256",
          "name": "oldVotingDelay",
          "type": "uint256"
        },
        {
          "indexed": false,
          "internalType": "uint256",
          "name": "newVotingDelay",
          "type": "uint256"
        }
      ],
      "name": "VotingDelaySet",
      "type": "event"
    },
    {
      "anonymous": false,
      "inputs": [
        {
          "indexed": false,
          "internalType": "uint256",
          "name": "oldVotingPeriod",
          "type": "uint256"
        },
        {
          "indexed": false,
          "internalType": "uint256",
          "name": "newVotingPeriod",
          "type": "uint256"
        }
      ],
      "name": "VotingPeriodSet",
      "type": "event"
    },
    {
      "inputs": [],
      "name": "BALLOT_TYPEHASH",
      "outputs": [
        {
          "internalType": "bytes32",
          "name": "",
          "type": "bytes32"
        }
      ],
      "stateMutability": "view",
      "type": "function",
      "constant": true
    },
    {
      "inputs": [],
      "name": "COUNTING_MODE",
      "outputs": [
        {
          "internalType": "string",
          "name": "",
          "type": "string"
        }
      ],
      "stateMutability": "pure",
      "type": "function",
      "constant": true
    },
    {
      "inputs": [
        {
          "internalType": "uint256",
          "name": "proposalId",
          "type": "uint256"
        },
        {
          "internalType": "uint8",
          "name": "support",
          "type": "uint8"
        }
      ],
      "name": "castVote",
      "outputs": [
        {
          "internalType": "uint256",
          "name": "",
          "type": "uint256"
        }
      ],
      "stateMutability": "nonpayable",
      "type": "function"
    },
    {
      "inputs": [
        {
          "internalType": "uint256",
          "name": "proposalId",
          "type": "uint256"
        },
        {
          "internalType": "uint8",
          "name": "support",
          "type": "uint8"
        },
        {
          "internalType": "uint8",
          "name": "v",
          "type": "uint8"
        },
        {
          "internalType": "bytes32",
          "name": "r",
          "type": "bytes32"
        },
        {
          "internalType": "bytes32",
          "name": "s",
          "type": "bytes32"
        }
      ],
      "name": "castVoteBySig",
      "outputs": [
        {
          "internalType": "uint256",
          "name": "",
          "type": "uint256"
        }
      ],
      "stateMutability": "nonpayable",
      "type": "function"
    },
    {
      "inputs": [
        {
          "internalType": "uint256",
          "name": "proposalId",
          "type": "uint256"
        },
        {
          "internalType": "uint8",
          "name": "support",
          "type": "uint8"
        },
        {
          "internalType": "string",
          "name": "reason",
          "type": "string"
        }
      ],
      "name": "castVoteWithReason",
      "outputs": [
        {
          "internalType": "uint256",
          "name": "",
          "type": "uint256"
        }
      ],
      "stateMutability": "nonpayable",
      "type": "function"
    },
    {
      "inputs": [
        {
          "internalType": "address[]",
          "name": "targets",
          "type": "address[]"
        },
        {
          "internalType": "uint256[]",
          "name": "values",
          "type": "uint256[]"
        },
        {
          "internalType": "bytes[]",
          "name": "calldatas",
          "type": "bytes[]"
        },
        {
          "internalType": "bytes32",
          "name": "descriptionHash",
          "type": "bytes32"
        }
      ],
      "name": "execute",
      "outputs": [
        {
          "internalType": "uint256",
          "name": "",
          "type": "uint256"
        }
      ],
      "stateMutability": "payable",
      "type": "function",
      "payable": true
    },
    {
      "inputs": [
        {
          "internalType": "uint256",
          "name": "proposalId",
          "type": "uint256"
        },
        {
          "internalType": "address",
          "name": "account",
          "type": "address"
        }
      ],
      "name": "hasVoted",
      "outputs": [
        {
          "internalType": "bool",
          "name": "",
          "type": "bool"
        }
      ],
      "stateMutability": "view",
      "type": "function",
      "constant": true
    },
    {
      "inputs": [
        {
          "internalType": "address[]",
          "name": "targets",
          "type": "address[]"
        },
        {
          "internalType": "uint256[]",
          "name": "values",
          "type": "uint256[]"
        },
        {
          "internalType": "bytes[]",
          "name": "calldatas",
          "type": "bytes[]"
        },
        {
          "internalType": "bytes32",
          "name": "descriptionHash",
          "type": "bytes32"
        }
      ],
      "name": "hashProposal",
      "outputs": [
        {
          "internalType": "uint256",
          "name": "",
          "type": "uint256"
        }
      ],
      "stateMutability": "pure",
      "type": "function",
      "constant": true
    },
    {
      "inputs": [],
      "name": "name",
      "outputs": [
        {
          "internalType": "string",
          "name": "",
          "type": "string"
        }
      ],
      "stateMutability": "view",
      "type": "function",
      "constant": true
    },
    {
      "inputs": [
        {
          "internalType": "uint256",
          "name": "proposalId",
          "type": "uint256"
        }
      ],
      "name": "proposalDeadline",
      "outputs": [
        {
          "internalType": "uint256",
          "name": "",
          "type": "uint256"
        }
      ],
      "stateMutability": "view",
      "type": "function",
      "constant": true
    },
    {
      "inputs": [
        {
          "internalType": "uint256",
          "name": "proposalId",
          "type": "uint256"
        }
      ],
      "name": "proposalSnapshot",
      "outputs": [
        {
          "internalType": "uint256",
          "name": "",
          "type": "uint256"
        }
      ],
      "stateMutability": "view",
      "type": "function",
      "constant": true
    },
    {
      "inputs": [
        {
          "internalType": "uint256",
          "name": "proposalId",
          "type": "uint256"
        }
      ],
      "name": "proposalVotes",
      "outputs": [
        {
          "internalType": "uint256",
          "name": "againstVotes",
          "type": "uint256"
        },
        {
          "internalType": "uint256",
          "name": "forVotes",
          "type": "uint256"
        },
        {
          "internalType": "uint256",
          "name": "abstainVotes",
          "type": "uint256"
        }
      ],
      "stateMutability": "view",
      "type": "function",
      "constant": true
    },
    {
      "inputs": [
        {
          "internalType": "uint256",
          "name": "blockNumber",
          "type": "uint256"
        }
      ],
      "name": "quorum",
      "outputs": [
        {
          "internalType": "uint256",
          "name": "",
          "type": "uint256"
        }
      ],
      "stateMutability": "view",
      "type": "function",
      "constant": true
    },
    {
      "inputs": [],
      "name": "quorumDenominator",
      "outputs": [
        {
          "internalType": "uint256",
          "name": "",
          "type": "uint256"
        }
      ],
      "stateMutability": "view",
      "type": "function",
      "constant": true
    },
    {
      "inputs": [],
      "name": "quorumNumerator",
      "outputs": [
        {
          "internalType": "uint256",
          "name": "",
          "type": "uint256"
        }
      ],
      "stateMutability": "view",
      "type": "function",
      "constant": true
    },
    {
      "inputs": [
        {
          "internalType": "uint256",
          "name": "newProposalThreshold",
          "type": "uint256"
        }
      ],
      "name": "setProposalThreshold",
      "outputs": [],
      "stateMutability": "nonpayable",
      "type": "function"
    },
    {
      "inputs": [
        {
          "internalType": "uint256",
          "name": "newVotingDelay",
          "type": "uint256"
        }
      ],
      "name": "setVotingDelay",
      "outputs": [],
      "stateMutability": "nonpayable",
      "type": "function"
    },
    {
      "inputs": [
        {
          "internalType": "uint256",
          "name": "newVotingPeriod",
          "type": "uint256"
        }
      ],
      "name": "setVotingPeriod",
      "outputs": [],
      "stateMutability": "nonpayable",
      "type": "function"
    },
    {
      "inputs": [
        {
          "internalType": "uint256",
          "name": "proposalId",
          "type": "uint256"
        }
      ],
      "name": "state",
      "outputs": [
        {
          "internalType": "enum IGovernor.ProposalState",
          "name": "",
          "type": "uint8"
        }
      ],
      "stateMutability": "view",
      "type": "function",
      "constant": true
    },
    {
      "inputs": [
        {
          "internalType": "bytes4",
          "name": "interfaceId",
          "type": "bytes4"
        }
      ],
      "name": "supportsInterface",
      "outputs": [
        {
          "internalType": "bool",
          "name": "",
          "type": "bool"
        }
      ],
      "stateMutability": "view",
      "type": "function",
      "constant": true
    },
    {
      "inputs": [],
      "name": "token",
      "outputs": [
        {
          "internalType": "contract ERC20Votes",
          "name": "",
          "type": "address"
        }
      ],
      "stateMutability": "view",
      "type": "function",
      "constant": true
    },
    {
      "inputs": [
        {
          "internalType": "uint256",
          "name": "newQuorumNumerator",
          "type": "uint256"
        }
      ],
      "name": "updateQuorumNumerator",
      "outputs": [],
      "stateMutability": "nonpayable",
      "type": "function"
    },
    {
      "inputs": [],
      "name": "version",
      "outputs": [
        {
          "internalType": "string",
          "name": "",
          "type": "string"
        }
      ],
      "stateMutability": "view",
      "type": "function",
      "constant": true
    },
    {
      "inputs": [],
      "name": "votingDelay",
      "outputs": [
        {
          "internalType": "uint256",
          "name": "",
          "type": "uint256"
        }
      ],
      "stateMutability": "view",
      "type": "function",
      "constant": true
    },
    {
      "inputs": [],
      "name": "votingPeriod",
      "outputs": [
        {
          "internalType": "uint256",
          "name": "",
          "type": "uint256"
        }
      ],
      "stateMutability": "view",
      "type": "function",
      "constant": true
    },
    {
      "stateMutability": "payable",
      "type": "receive",
      "payable": true
    },
    {
      "inputs": [
        {
          "internalType": "address[]",
          "name": "targets",
          "type": "address[]"
        },
        {
          "internalType": "uint256[]",
          "name": "values",
          "type": "uint256[]"
        },
        {
          "internalType": "bytes[]",
          "name": "calldatas",
          "type": "bytes[]"
        },
        {
          "internalType": "bytes32",
          "name": "salt",
          "type": "bytes32"
        }
      ],
      "name": "cancel",
      "outputs": [
        {
          "internalType": "uint256",
          "name": "proposalId",
          "type": "uint256"
        }
      ],
      "stateMutability": "nonpayable",
      "type": "function"
    },
    {
      "inputs": [
        {
          "internalType": "address",
          "name": "account",
          "type": "address"
        },
        {
          "internalType": "uint256",
          "name": "blockNumber",
          "type": "uint256"
        }
      ],
      "name": "getVotes",
      "outputs": [
        {
          "internalType": "uint256",
          "name": "",
          "type": "uint256"
        }
      ],
      "stateMutability": "view",
      "type": "function",
      "constant": true
    },
    {
      "inputs": [],
      "name": "proposalThreshold",
      "outputs": [
        {
          "internalType": "uint256",
          "name": "",
          "type": "uint256"
        }
      ],
      "stateMutability": "view",
      "type": "function",
      "constant": true
    },
    {
      "inputs": [
        {
          "internalType": "address[]",
          "name": "targets",
          "type": "address[]"
        },
        {
          "internalType": "uint256[]",
          "name": "values",
          "type": "uint256[]"
        },
        {
          "internalType": "bytes[]",
          "name": "calldatas",
          "type": "bytes[]"
        },
        {
          "internalType": "string",
          "name": "description",
          "type": "string"
        }
      ],
      "name": "propose",
      "outputs": [
        {
          "internalType": "uint256",
          "name": "",
          "type": "uint256"
        }
      ],
      "stateMutability": "nonpayable",
      "type": "function"
    }
  ],
  "bytecode": "0x6101606040523480156200001257600080fd5b50604051620053643803806200536483398181016040528101906200003891906200053a565b808484846000898062000050620001ab60201b60201c565b60008280519060200120905060008280519060200120905060007f8b73c3c69bb8fe3d512ecc4cf759cc79239f7b179b0ffacaa9a75d522b39400f90508260e081815250508161010081815250504660a08181525050620000b9818484620001e860201b60201c565b608081815250503073ffffffffffffffffffffffffffffffffffffffff1660c08173ffffffffffffffffffffffffffffffffffffffff1660601b81525050806101208181525050505050505080600090805190602001906200011d929190620003ea565b505062000130836200022460201b60201c565b62000141826200026b60201b60201c565b6200015281620002f860201b60201c565b5050508073ffffffffffffffffffffffffffffffffffffffff166101408173ffffffffffffffffffffffffffffffffffffffff1660601b81525050506200019f816200033f60201b60201c565b505050505050620009f9565b60606040518060400160405280600181526020017f3100000000000000000000000000000000000000000000000000000000000000815250905090565b600083838346306040516020016200020595949392919062000656565b6040516020818303038152906040528051906020012090509392505050565b7fc565b045403dc03c2eea82b81a0465edad9e2e7fc4d97e11421c209da93d7a936002548260405162000259929190620006f7565b60405180910390a18060028190555050565b60008111620002b1576040517f08c379a0000000000000000000000000000000000000000000000000000000008152600401620002a890620006d5565b60405180910390fd5b7f7e3f7f0708a84de9203036abaa450dccc85ad5ff52f78c170f3edb55cf5e882860035482604051620002e6929190620006f7565b60405180910390a18060038190555050565b7fccb45da8d5717e6c4544694297c4ba5cf151d455c9bb0ed4fc7a38411bc05461600454826040516200032d929190620006f7565b60405180910390a18060048190555050565b6200034f620003e160201b60201c565b81111562000394576040517f08c379a00000000000000000000000000000000000000000000000000000000081526004016200038b90620006b3565b60405180910390fd5b60006005549050816005819055507f0553476bf02ef2726e8ce5ced78d63e26e602e4a2257b1f559418e24b46339978183604051620003d5929190620006f7565b60405180910390a15050565b60006064905090565b828054620003f89062000826565b90600052602060002090601f0160209004810192826200041c576000855562000468565b82601f106200043757805160ff191683800117855562000468565b8280016001018555821562000468579182015b82811115620004675782518255916020019190600101906200044a565b5b5090506200047791906200047b565b5090565b5b80821115620004965760008160009055506001016200047c565b5090565b6000620004b1620004ab846200074d565b62000724565b905082815260208101848484011115620004ca57600080fd5b620004d7848285620007f0565b509392505050565b600081519050620004f081620009c5565b92915050565b600082601f8301126200050857600080fd5b81516200051a8482602086016200049a565b91505092915050565b6000815190506200053481620009df565b92915050565b600080600080600060a086880312156200055357600080fd5b600086015167ffffffffffffffff8111156200056e57600080fd5b6200057c88828901620004f6565b95505060206200058f88828901620004df565b9450506040620005a28882890162000523565b9350506060620005b58882890162000523565b9250506080620005c88882890162000523565b9150509295509295909350565b620005e08162000794565b82525050565b620005f181620007a8565b82525050565b60006200060660438362000783565b9150620006138262000901565b606082019050919050565b60006200062d60278362000783565b91506200063a8262000976565b604082019050919050565b6200065081620007e6565b82525050565b600060a0820190506200066d6000830188620005e6565b6200067c6020830187620005e6565b6200068b6040830186620005e6565b6200069a606083018562000645565b620006a96080830184620005d5565b9695505050505050565b60006020820190508181036000830152620006ce81620005f7565b9050919050565b60006020820190508181036000830152620006f0816200061e565b9050919050565b60006040820190506200070e600083018562000645565b6200071d602083018462000645565b9392505050565b60006200073062000743565b90506200073e82826200085c565b919050565b6000604051905090565b600067ffffffffffffffff8211156200076b576200076a620008c1565b5b6200077682620008f0565b9050602081019050919050565b600082825260208201905092915050565b6000620007a182620007c6565b9050919050565b6000819050919050565b6000620007bf8262000794565b9050919050565b600073ffffffffffffffffffffffffffffffffffffffff82169050919050565b6000819050919050565b60005b8381101562000810578082015181840152602081019050620007f3565b8381111562000820576000848401525b50505050565b600060028204905060018216806200083f57607f821691505b6020821081141562000856576200085562000892565b5b50919050565b6200086782620008f0565b810181811067ffffffffffffffff82111715620008895762000888620008c1565b5b80604052505050565b7f4e487b7100000000000000000000000000000000000000000000000000000000600052602260045260246000fd5b7f4e487b7100000000000000000000000000000000000000000000000000000000600052604160045260246000fd5b6000601f19601f8301169050919050565b7f476f7665726e6f72566f74657351756f72756d4672616374696f6e3a2071756f60008201527f72756d4e756d657261746f72206f7665722071756f72756d44656e6f6d696e6160208201527f746f720000000000000000000000000000000000000000000000000000000000604082015250565b7f476f7665726e6f7253657474696e67733a20766f74696e6720706572696f642060008201527f746f6f206c6f7700000000000000000000000000000000000000000000000000602082015250565b620009d081620007b2565b8114620009dc57600080fd5b50565b620009ea81620007e6565b8114620009f657600080fd5b50565b60805160a05160c05160601c60e05161010051610120516101405160601c6148fc62000a68600039600081816112d1015281816113950152611c0001526000611e0b01526000611e4d01526000611e2c01526000611d6101526000611db701526000611de001526148fc6000f3fe6080604052600436106101c65760003560e01c806370b0f660116100f7578063c59057e411610095578063eb9019d411610064578063eb9019d41461071d578063ece40cc11461075a578063f8ce560a14610783578063fc0c546a146107c05761020c565b8063c59057e414610661578063dd4e2ba51461069e578063deaaa7cc146106c9578063ea0217cf146106f45761020c565b806397c3d334116100d157806397c3d334146105a3578063a7713a70146105ce578063b58131b0146105f9578063c01f9e37146106245761020c565b806370b0f660146105005780637b3c71d3146105295780637d5e81e2146105665761020c565b80633bccf4fd11610164578063452115d61161013e578063452115d61461041c578063544ffc9c1461045957806354fd4d501461049857806356781388146104c35761020c565b80633bccf4fd146103655780633e4f49e6146103a257806343859632146103df5761020c565b806306fdde03116101a057806306fdde03146102a25780632656227d146102cd5780632d63f693146102fd5780633932abb11461033a5761020c565b806301ffc9a71461021157806302a251a31461024e57806306f3f9e6146102795761020c565b3661020c573073ffffffffffffffffffffffffffffffffffffffff166101ea6107eb565b73ffffffffffffffffffffffffffffffffffffffff161461020a57600080fd5b005b600080fd5b34801561021d57600080fd5b5061023860048036038101906102339190612e8f565b6107f3565b6040516102459190613756565b60405180910390f35b34801561025a57600080fd5b5061026361086d565b6040516102709190613af3565b60405180910390f35b34801561028557600080fd5b506102a0600480360381019061029b9190612eb8565b610877565b005b3480156102ae57600080fd5b506102b76108ff565b6040516102c49190613891565b60405180910390f35b6102e760048036038101906102e29190612d21565b610991565b6040516102f49190613af3565b60405180910390f35b34801561030957600080fd5b50610324600480360381019061031f9190612eb8565b610b5c565b6040516103319190613af3565b60405180910390f35b34801561034657600080fd5b5061034f610bca565b60405161035c9190613af3565b60405180910390f35b34801561037157600080fd5b5061038c60048036038101906103879190612fee565b610bd4565b6040516103999190613af3565b60405180910390f35b3480156103ae57600080fd5b506103c960048036038101906103c49190612eb8565b610c5e565b6040516103d69190613876565b60405180910390f35b3480156103eb57600080fd5b5061040660048036038101906104019190612f0a565b610e3b565b6040516104139190613756565b60405180910390f35b34801561042857600080fd5b50610443600480360381019061043e9190612d21565b610ea6565b6040516104509190613af3565b60405180910390f35b34801561046557600080fd5b50610480600480360381019061047b9190612eb8565b610ebe565b60405161048f93929190613be7565b60405180910390f35b3480156104a457600080fd5b506104ad610ef6565b6040516104ba9190613891565b60405180910390f35b3480156104cf57600080fd5b506104ea60048036038101906104e59190612f46565b610f33565b6040516104f79190613af3565b60405180910390f35b34801561050c57600080fd5b5061052760048036038101906105229190612eb8565b610f64565b005b34801561053557600080fd5b50610550600480360381019061054b9190612f82565b610fec565b60405161055d9190613af3565b60405180910390f35b34801561057257600080fd5b5061058d60048036038101906105889190612dcc565b611054565b60405161059a9190613af3565b60405180910390f35b3480156105af57600080fd5b506105b861106c565b6040516105c59190613af3565b60405180910390f35b3480156105da57600080fd5b506105e3611075565b6040516105f09190613af3565b60405180910390f35b34801561060557600080fd5b5061060e61107f565b60405161061b9190613af3565b60405180910390f35b34801561063057600080fd5b5061064b60048036038101906106469190612eb8565b61108e565b6040516106589190613af3565b60405180910390f35b34801561066d57600080fd5b5061068860048036038101906106839190612d21565b6110fc565b6040516106959190613af3565b60405180910390f35b3480156106aa57600080fd5b506106b3611138565b6040516106c09190613891565b60405180910390f35b3480156106d557600080fd5b506106de611175565b6040516106eb9190613771565b60405180910390f35b34801561070057600080fd5b5061071b60048036038101906107169190612eb8565b611199565b005b34801561072957600080fd5b50610744600480360381019061073f9190612ce5565b611221565b6040516107519190613af3565b60405180910390f35b34801561076657600080fd5b50610781600480360381019061077c9190612eb8565b611235565b005b34801561078f57600080fd5b506107aa60048036038101906107a59190612eb8565b6112bd565b6040516107b79190613af3565b60405180910390f35b3480156107cc57600080fd5b506107d5611393565b6040516107e2919061385b565b60405180910390f35b600030905090565b60007fbf26d897000000000000000000000000000000000000000000000000000000007bffffffffffffffffffffffffffffffffffffffffffffffffffffffff1916827bffffffffffffffffffffffffffffffffffffffffffffffffffffffff191614806108665750610865826113b7565b5b9050919050565b6000600354905090565b61087f6107eb565b73ffffffffffffffffffffffffffffffffffffffff1661089d611421565b73ffffffffffffffffffffffffffffffffffffffff16146108f3576040517f08c379a00000000000000000000000000000000000000000000000000000000081526004016108ea906138d3565b60405180910390fd5b6108fc81611429565b50565b60606000805461090e90614147565b80601f016020809104026020016040519081016040528092919081815260200182805461093a90614147565b80156109875780601f1061095c57610100808354040283529160200191610987565b820191906000526020600020905b81548152906001019060200180831161096a57829003601f168201915b5050505050905090565b6000806109a0868686866110fc565b905060006109ad82610c5e565b9050600460078111156109e9577f4e487b7100000000000000000000000000000000000000000000000000000000600052602160045260246000fd5b816007811115610a22577f4e487b7100000000000000000000000000000000000000000000000000000000600052602160045260246000fd5b1480610a9e575060056007811115610a63577f4e487b7100000000000000000000000000000000000000000000000000000000600052602160045260246000fd5b816007811115610a9c577f4e487b7100000000000000000000000000000000000000000000000000000000600052602160045260246000fd5b145b610add576040517f08c379a0000000000000000000000000000000000000000000000000000000008152600401610ad490613a73565b60405180910390fd5b600180600084815260200190815260200160002060020160006101000a81548160ff0219169083151502179055507f712ae1383f79ac853f8d882153778e0260ef8f03b504e2866e0593e04d2b291f82604051610b3a9190613af3565b60405180910390a1610b4f82888888886114be565b8192505050949350505050565b6000610bb9600160008481526020019081526020016000206000016040518060200160405290816000820160009054906101000a900467ffffffffffffffff1667ffffffffffffffff1667ffffffffffffffff168152505061163f565b67ffffffffffffffff169050919050565b6000600254905090565b600080610c35610c2d7f150214d74d59b7d1e90c73fc22ef3d991dd0a76b046543d4d80ab92d2a50328f8989604051602001610c12939291906137df565b6040516020818303038152906040528051906020012061164d565b868686611667565b9050610c5287828860405180602001604052806000815250611692565b91505095945050505050565b60008060016000848152602001908152602001600020604051806080016040529081600082016040518060200160405290816000820160009054906101000a900467ffffffffffffffff1667ffffffffffffffff1667ffffffffffffffff16815250508152602001600182016040518060200160405290816000820160009054906101000a900467ffffffffffffffff1667ffffffffffffffff1667ffffffffffffffff168152505081526020016002820160009054906101000a900460ff161515151581526020016002820160019054906101000a900460ff1615151515815250509050806040015115610d57576007915050610e36565b806060015115610d6b576002915050610e36565b43610d79826000015161163f565b67ffffffffffffffff1610610d92576000915050610e36565b43610da0826020015161163f565b67ffffffffffffffff1610610db9576001915050610e36565b610dc68160200151611832565b15610dfb57610dd48361185e565b8015610de55750610de4836118a5565b5b610df0576003610df3565b60045b915050610e36565b6040517f08c379a0000000000000000000000000000000000000000000000000000000008152600401610e2d90613a93565b60405180910390fd5b919050565b60006006600084815260200190815260200160002060030160008373ffffffffffffffffffffffffffffffffffffffff1673ffffffffffffffffffffffffffffffffffffffff16815260200190815260200160002060009054906101000a900460ff16905092915050565b6000610eb4858585856118d0565b9050949350505050565b600080600080600660008681526020019081526020016000209050806000015481600101548260020154935093509350509193909250565b60606040518060400160405280600181526020017f3100000000000000000000000000000000000000000000000000000000000000815250905090565b600080610f3e611421565b9050610f5b84828560405180602001604052806000815250611692565b91505092915050565b610f6c6107eb565b73ffffffffffffffffffffffffffffffffffffffff16610f8a611421565b73ffffffffffffffffffffffffffffffffffffffff1614610fe0576040517f08c379a0000000000000000000000000000000000000000000000000000000008152600401610fd7906138d3565b60405180910390fd5b610fe981611b0d565b50565b600080610ff7611421565b905061104986828787878080601f016020809104026020016040519081016040528093929190818152602001838380828437600081840152601f19601f82011690508083019250505050505050611692565b915050949350505050565b600061106285858585611b52565b9050949350505050565b60006064905090565b6000600554905090565b6000611089611b6a565b905090565b60006110eb600160008481526020019081526020016000206001016040518060200160405290816000820160009054906101000a900467ffffffffffffffff1667ffffffffffffffff1667ffffffffffffffff168152505061163f565b67ffffffffffffffff169050919050565b60008484848460405160200161111594939291906136fc565b6040516020818303038152906040528051906020012060001c9050949350505050565b60606040518060400160405280602081526020017f737570706f72743d627261766f2671756f72756d3d666f722c6162737461696e815250905090565b7f150214d74d59b7d1e90c73fc22ef3d991dd0a76b046543d4d80ab92d2a50328f81565b6111a16107eb565b73ffffffffffffffffffffffffffffffffffffffff166111bf611421565b73ffffffffffffffffffffffffffffffffffffffff1614611215576040517f08c379a000000000000000000000000000000000000000000000000000000000815260040161120c906138d3565b60405180910390fd5b61121e81611b74565b50565b600061122d8383611bfc565b905092915050565b61123d6107eb565b73ffffffffffffffffffffffffffffffffffffffff1661125b611421565b73ffffffffffffffffffffffffffffffffffffffff16146112b1576040517f08c379a00000000000000000000000000000000000000000000000000000000081526004016112a8906138d3565b60405180910390fd5b6112ba81611cb1565b50565b60006112c761106c565b6112cf611075565b7f000000000000000000000000000000000000000000000000000000000000000073ffffffffffffffffffffffffffffffffffffffff16638e539e8c856040518263ffffffff1660e01b81526004016113289190613af3565b60206040518083038186803b15801561134057600080fd5b505afa158015611354573d6000803e3d6000fd5b505050506040513d601f19601f820116820180604052508101906113789190612ee1565b6113829190613f7d565b61138c9190613f4c565b9050919050565b7f000000000000000000000000000000000000000000000000000000000000000081565b60007f01ffc9a7000000000000000000000000000000000000000000000000000000007bffffffffffffffffffffffffffffffffffffffffffffffffffffffff1916827bffffffffffffffffffffffffffffffffffffffffffffffffffffffff1916149050919050565b600033905090565b61143161106c565b811115611473576040517f08c379a000000000000000000000000000000000000000000000000000000000815260040161146a906138f3565b60405180910390fd5b60006005549050816005819055507f0553476bf02ef2726e8ce5ced78d63e26e602e4a2257b1f559418e24b463399781836040516114b2929190613bbe565b60405180910390a15050565b60006040518060600160405280602781526020016148a060279139905060005b855181101561163657600080878381518110611523577f4e487b7100000000000000000000000000000000000000000000000000000000600052603260045260246000fd5b602002602001015173ffffffffffffffffffffffffffffffffffffffff1687848151811061157a577f4e487b7100000000000000000000000000000000000000000000000000000000600052603260045260246000fd5b60200260200101518785815181106115bb577f4e487b7100000000000000000000000000000000000000000000000000000000600052603260045260246000fd5b60200260200101516040516115d09190613685565b60006040518083038185875af1925050503d806000811461160d576040519150601f19603f3d011682016040523d82523d6000602084013e611612565b606091505b5091509150611622828286611cf6565b5050508061162f906141aa565b90506114de565b50505050505050565b600081600001519050919050565b600061166061165a611d5d565b83611e77565b9050919050565b600080600061167887878787611eaa565b9150915061168581611fb7565b8192505050949350505050565b600080600160008781526020019081526020016000209050600160078111156116e4577f4e487b7100000000000000000000000000000000000000000000000000000000600052602160045260246000fd5b6116ed87610c5e565b6007811115611725577f4e487b7100000000000000000000000000000000000000000000000000000000600052602160045260246000fd5b14611765576040517f08c379a000000000000000000000000000000000000000000000000000000000815260040161175c906139d3565b60405180910390fd5b60006117c3866117b4846000016040518060200160405290816000820160009054906101000a900467ffffffffffffffff1667ffffffffffffffff1667ffffffffffffffff168152505061163f565b67ffffffffffffffff16611221565b90506117d187878784612308565b8573ffffffffffffffffffffffffffffffffffffffff167fb8e138887d0aa13bab447e82de9d5c1777041ecd21ca36ba824ff1e6c07ddda48887848860405161181d9493929190613c1e565b60405180910390a28092505050949350505050565b600061183d82612580565b8015611857575043826000015167ffffffffffffffff1611155b9050919050565b6000806006600084815260200190815260200160002090508060020154816001015461188a9190613eb8565b61189b61189685610b5c565b6112bd565b1115915050919050565b6000806006600084815260200190815260200160002090508060000154816001015411915050919050565b6000806118df868686866110fc565b905060006118ec82610c5e565b905060026007811115611928577f4e487b7100000000000000000000000000000000000000000000000000000000600052602160045260246000fd5b816007811115611961577f4e487b7100000000000000000000000000000000000000000000000000000000600052602160045260246000fd5b141580156119e05750600660078111156119a4577f4e487b7100000000000000000000000000000000000000000000000000000000600052602160045260246000fd5b8160078111156119dd577f4e487b7100000000000000000000000000000000000000000000000000000000600052602160045260246000fd5b14155b8015611a5c5750600780811115611a20577f4e487b7100000000000000000000000000000000000000000000000000000000600052602160045260246000fd5b816007811115611a59577f4e487b7100000000000000000000000000000000000000000000000000000000600052602160045260246000fd5b14155b611a9b576040517f08c379a0000000000000000000000000000000000000000000000000000000008152600401611a9290613a53565b60405180910390fd5b600180600084815260200190815260200160002060020160016101000a81548160ff0219169083151502179055507f789cf55be980739dad1d0699b93b58e806b51c9d96619bfa8fe0a28abaa7b30c82604051611af89190613af3565b60405180910390a18192505050949350505050565b7fc565b045403dc03c2eea82b81a0465edad9e2e7fc4d97e11421c209da93d7a9360025482604051611b40929190613bbe565b60405180910390a18060028190555050565b6000611b608585858561259a565b9050949350505050565b6000600454905090565b60008111611bb7576040517f08c379a0000000000000000000000000000000000000000000000000000000008152600401611bae90613973565b60405180910390fd5b7f7e3f7f0708a84de9203036abaa450dccc85ad5ff52f78c170f3edb55cf5e882860035482604051611bea929190613bbe565b60405180910390a18060038190555050565b60007f000000000000000000000000000000000000000000000000000000000000000073ffffffffffffffffffffffffffffffffffffffff16633a46b1a884846040518363ffffffff1660e01b8152600401611c599291906136d3565b60206040518083038186803b158015611c7157600080fd5b505afa158015611c85573d6000803e3d6000fd5b505050506040513d601f19601f82011682018060405250810190611ca99190612ee1565b905092915050565b7fccb45da8d5717e6c4544694297c4ba5cf151d455c9bb0ed4fc7a38411bc0546160045482604051611ce4929190613bbe565b60405180910390a18060048190555050565b60608315611d0657829050611d56565b600083511115611d195782518084602001fd5b816040517f08c379a0000000000000000000000000000000000000000000000000000000008152600401611d4d9190613891565b60405180910390fd5b9392505050565b60007f000000000000000000000000000000000000000000000000000000000000000073ffffffffffffffffffffffffffffffffffffffff163073ffffffffffffffffffffffffffffffffffffffff16148015611dd957507f000000000000000000000000000000000000000000000000000000000000000046145b15611e06577f00000000000000000000000000000000000000000000000000000000000000009050611e74565b611e717f00000000000000000000000000000000000000000000000000000000000000007f00000000000000000000000000000000000000000000000000000000000000007f00000000000000000000000000000000000000000000000000000000000000006128c0565b90505b90565b60008282604051602001611e8c92919061369c565b60405160208183030381529060405280519060200120905092915050565b6000807f7fffffffffffffffffffffffffffffff5d576e7357a4501ddfe92f46681b20a08360001c1115611ee5576000600391509150611fae565b601b8560ff1614158015611efd5750601c8560ff1614155b15611f0f576000600491509150611fae565b600060018787878760405160008152602001604052604051611f349493929190613816565b6020604051602081039080840390855afa158015611f56573d6000803e3d6000fd5b505050602060405103519050600073ffffffffffffffffffffffffffffffffffffffff168173ffffffffffffffffffffffffffffffffffffffff161415611fa557600060019250925050611fae565b80600092509250505b94509492505050565b60006004811115611ff1577f4e487b7100000000000000000000000000000000000000000000000000000000600052602160045260246000fd5b81600481111561202a577f4e487b7100000000000000000000000000000000000000000000000000000000600052602160045260246000fd5b141561203557612305565b6001600481111561206f577f4e487b7100000000000000000000000000000000000000000000000000000000600052602160045260246000fd5b8160048111156120a8577f4e487b7100000000000000000000000000000000000000000000000000000000600052602160045260246000fd5b14156120e9576040517f08c379a00000000000000000000000000000000000000000000000000000000081526004016120e0906138b3565b60405180910390fd5b60026004811115612123577f4e487b7100000000000000000000000000000000000000000000000000000000600052602160045260246000fd5b81600481111561215c577f4e487b7100000000000000000000000000000000000000000000000000000000600052602160045260246000fd5b141561219d576040517f08c379a000000000000000000000000000000000000000000000000000000000815260040161219490613933565b60405180910390fd5b600360048111156121d7577f4e487b7100000000000000000000000000000000000000000000000000000000600052602160045260246000fd5b816004811115612210577f4e487b7100000000000000000000000000000000000000000000000000000000600052602160045260246000fd5b1415612251576040517f08c379a000000000000000000000000000000000000000000000000000000000815260040161224890613993565b60405180910390fd5b60048081111561228a577f4e487b7100000000000000000000000000000000000000000000000000000000600052602160045260246000fd5b8160048111156122c3577f4e487b7100000000000000000000000000000000000000000000000000000000600052602160045260246000fd5b1415612304576040517f08c379a00000000000000000000000000000000000000000000000000000000081526004016122fb90613a13565b60405180910390fd5b5b50565b60006006600086815260200190815260200160002090508060030160008573ffffffffffffffffffffffffffffffffffffffff1673ffffffffffffffffffffffffffffffffffffffff16815260200190815260200160002060009054906101000a900460ff16156123ae576040517f08c379a00000000000000000000000000000000000000000000000000000000081526004016123a5906139b3565b60405180910390fd5b60018160030160008673ffffffffffffffffffffffffffffffffffffffff1673ffffffffffffffffffffffffffffffffffffffff16815260200190815260200160002060006101000a81548160ff02191690831515021790555060006002811115612442577f4e487b7100000000000000000000000000000000000000000000000000000000600052602160045260246000fd5b60ff168360ff16141561246f57818160000160008282546124639190613eb8565b92505081905550612579565b600160028111156124a9577f4e487b7100000000000000000000000000000000000000000000000000000000600052602160045260246000fd5b60ff168360ff1614156124d657818160010160008282546124ca9190613eb8565b92505081905550612578565b60028081111561250f577f4e487b7100000000000000000000000000000000000000000000000000000000600052602160045260246000fd5b60ff168360ff16141561253c57818160020160008282546125309190613eb8565b92505081905550612577565b6040517f08c379a000000000000000000000000000000000000000000000000000000000815260040161256e90613ab3565b60405180910390fd5b5b5b5050505050565b600080826000015167ffffffffffffffff16119050919050565b60006125a461107f565b6125ba336001436125b59190613fd7565b611221565b10156125fb576040517f08c379a00000000000000000000000000000000000000000000000000000000081526004016125f290613913565b60405180910390fd5b600061261086868686805190602001206110fc565b90508451865114612656576040517f08c379a000000000000000000000000000000000000000000000000000000000815260040161264d90613953565b60405180910390fd5b835186511461269a576040517f08c379a000000000000000000000000000000000000000000000000000000000815260040161269190613953565b60405180910390fd5b60008651116126de576040517f08c379a00000000000000000000000000000000000000000000000000000000081526004016126d5906139f3565b60405180910390fd5b600060016000838152602001908152602001600020905061273e816000016040518060200160405290816000820160009054906101000a900467ffffffffffffffff1667ffffffffffffffff1667ffffffffffffffff16815250506128fa565b61277d576040517f08c379a000000000000000000000000000000000000000000000000000000000815260040161277490613ad3565b60405180910390fd5b600061278f61278a610bca565b612914565b61279843612914565b6127a29190613f0e565b905060006127b66127b161086d565b612914565b826127c19190613f0e565b90506127d9828460000161296b90919063ffffffff16565b6127ef818460010161296b90919063ffffffff16565b7f7d84a6263ae0d98d3329bd7b46bb4e8d6f98cd35a7adb45c274c8b7fd5ebd5e084612819611421565b8b8b8d5167ffffffffffffffff81111561285c577f4e487b7100000000000000000000000000000000000000000000000000000000600052604160045260246000fd5b60405190808252806020026020018201604052801561288f57816020015b606081526020019060019003908161287a5790505b508c88888e6040516128a999989796959493929190613b0e565b60405180910390a183945050505050949350505050565b600083838346306040516020016128db95949392919061378c565b6040516020818303038152906040528051906020012090509392505050565b600080826000015167ffffffffffffffff16149050919050565b600067ffffffffffffffff8016821115612963576040517f08c379a000000000000000000000000000000000000000000000000000000000815260040161295a90613a33565b60405180910390fd5b819050919050565b808260000160006101000a81548167ffffffffffffffff021916908367ffffffffffffffff1602179055505050565b60006129ad6129a884613c8f565b613c6a565b905080838252602082019050828560208602820111156129cc57600080fd5b60005b858110156129fc57816129e28882612b4b565b8452602084019350602083019250506001810190506129cf565b5050509392505050565b6000612a19612a1484613cbb565b613c6a565b9050808382526020820190508260005b85811015612a595781358501612a3f8882612c08565b845260208401935060208301925050600181019050612a29565b5050509392505050565b6000612a76612a7184613ce7565b613c6a565b90508083825260208201905082856020860282011115612a9557600080fd5b60005b85811015612ac55781612aab8882612ca6565b845260208401935060208301925050600181019050612a98565b5050509392505050565b6000612ae2612add84613d13565b613c6a565b905082815260208101848484011115612afa57600080fd5b612b05848285614105565b509392505050565b6000612b20612b1b84613d44565b613c6a565b905082815260208101848484011115612b3857600080fd5b612b43848285614105565b509392505050565b600081359050612b5a8161482c565b92915050565b600082601f830112612b7157600080fd5b8135612b8184826020860161299a565b91505092915050565b600082601f830112612b9b57600080fd5b8135612bab848260208601612a06565b91505092915050565b600082601f830112612bc557600080fd5b8135612bd5848260208601612a63565b91505092915050565b600081359050612bed81614843565b92915050565b600081359050612c028161485a565b92915050565b600082601f830112612c1957600080fd5b8135612c29848260208601612acf565b91505092915050565b60008083601f840112612c4457600080fd5b8235905067ffffffffffffffff811115612c5d57600080fd5b602083019150836001820283011115612c7557600080fd5b9250929050565b600082601f830112612c8d57600080fd5b8135612c9d848260208601612b0d565b91505092915050565b600081359050612cb581614871565b92915050565b600081519050612cca81614871565b92915050565b600081359050612cdf81614888565b92915050565b60008060408385031215612cf857600080fd5b6000612d0685828601612b4b565b9250506020612d1785828601612ca6565b9150509250929050565b60008060008060808587031215612d3757600080fd5b600085013567ffffffffffffffff811115612d5157600080fd5b612d5d87828801612b60565b945050602085013567ffffffffffffffff811115612d7a57600080fd5b612d8687828801612bb4565b935050604085013567ffffffffffffffff811115612da357600080fd5b612daf87828801612b8a565b9250506060612dc087828801612bde565b91505092959194509250565b60008060008060808587031215612de257600080fd5b600085013567ffffffffffffffff811115612dfc57600080fd5b612e0887828801612b60565b945050602085013567ffffffffffffffff811115612e2557600080fd5b612e3187828801612bb4565b935050604085013567ffffffffffffffff811115612e4e57600080fd5b612e5a87828801612b8a565b925050606085013567ffffffffffffffff811115612e7757600080fd5b612e8387828801612c7c565b91505092959194509250565b600060208284031215612ea157600080fd5b6000612eaf84828501612bf3565b91505092915050565b600060208284031215612eca57600080fd5b6000612ed884828501612ca6565b91505092915050565b600060208284031215612ef357600080fd5b6000612f0184828501612cbb565b91505092915050565b60008060408385031215612f1d57600080fd5b6000612f2b85828601612ca6565b9250506020612f3c85828601612b4b565b9150509250929050565b60008060408385031215612f5957600080fd5b6000612f6785828601612ca6565b9250506020612f7885828601612cd0565b9150509250929050565b60008060008060608587031215612f9857600080fd5b6000612fa687828801612ca6565b9450506020612fb787828801612cd0565b935050604085013567ffffffffffffffff811115612fd457600080fd5b612fe087828801612c32565b925092505092959194509250565b600080600080600060a0868803121561300657600080fd5b600061301488828901612ca6565b955050602061302588828901612cd0565b945050604061303688828901612cd0565b935050606061304788828901612bde565b925050608061305888828901612bde565b9150509295509295909350565b600061307183836130bd565b60208301905092915050565b600061308983836132b6565b905092915050565b600061309d838361333e565b905092915050565b60006130b18383613649565b60208301905092915050565b6130c68161400b565b82525050565b6130d58161400b565b82525050565b60006130e682613db5565b6130f08185613e2b565b93506130fb83613d75565b8060005b8381101561312c5781516131138882613065565b975061311e83613df7565b9250506001810190506130ff565b5085935050505092915050565b600061314482613dc0565b61314e8185613e3c565b93508360208202850161316085613d85565b8060005b8581101561319c578484038952815161317d858261307d565b945061318883613e04565b925060208a01995050600181019050613164565b50829750879550505050505092915050565b60006131b982613dcb565b6131c38185613e4d565b9350836020820285016131d585613d95565b8060005b8581101561321157848403895281516131f28582613091565b94506131fd83613e11565b925060208a019950506001810190506131d9565b50829750879550505050505092915050565b600061322e82613dd6565b6132388185613e5e565b935061324383613da5565b8060005b8381101561327457815161325b88826130a5565b975061326683613e1e565b925050600181019050613247565b5085935050505092915050565b61328a8161401d565b82525050565b61329981614029565b82525050565b6132b06132ab82614029565b6141f3565b82525050565b60006132c182613de1565b6132cb8185613e6f565b93506132db818560208601614114565b6132e4816142e8565b840191505092915050565b60006132fa82613de1565b6133048185613e80565b9350613314818560208601614114565b80840191505092915050565b613329816140bd565b82525050565b613338816140e1565b82525050565b600061334982613dec565b6133538185613e8b565b9350613363818560208601614114565b61336c816142e8565b840191505092915050565b600061338282613dec565b61338c8185613e9c565b935061339c818560208601614114565b6133a5816142e8565b840191505092915050565b60006133bd601883613e9c565b91506133c8826142f9565b602082019050919050565b60006133e0601883613e9c565b91506133eb82614322565b602082019050919050565b6000613403604383613e9c565b915061340e8261434b565b606082019050919050565b6000613426604383613e9c565b9150613431826143c0565b606082019050919050565b6000613449601f83613e9c565b915061345482614435565b602082019050919050565b600061346c600283613ead565b91506134778261445e565b600282019050919050565b600061348f602183613e9c565b915061349a82614487565b604082019050919050565b60006134b2602783613e9c565b91506134bd826144d6565b604082019050919050565b60006134d5602283613e9c565b91506134e082614525565b604082019050919050565b60006134f8602783613e9c565b915061350382614574565b604082019050919050565b600061351b602383613e9c565b9150613526826145c3565b604082019050919050565b600061353e601883613e9c565b915061354982614612565b602082019050919050565b6000613561602283613e9c565b915061356c8261463b565b604082019050919050565b6000613584602683613e9c565b915061358f8261468a565b604082019050919050565b60006135a7601d83613e9c565b91506135b2826146d9565b602082019050919050565b60006135ca602183613e9c565b91506135d582614702565b604082019050919050565b60006135ed601d83613e9c565b91506135f882614751565b602082019050919050565b6000613610603583613e9c565b915061361b8261477a565b604082019050919050565b6000613633602183613e9c565b915061363e826147c9565b604082019050919050565b61365281614092565b82525050565b61366181614092565b82525050565b613670816140f3565b82525050565b61367f816140b0565b82525050565b600061369182846132ef565b915081905092915050565b60006136a78261345f565b91506136b3828561329f565b6020820191506136c3828461329f565b6020820191508190509392505050565b60006040820190506136e860008301856130cc565b6136f56020830184613658565b9392505050565b6000608082019050818103600083015261371681876130db565b9050818103602083015261372a8186613223565b9050818103604083015261373e8185613139565b905061374d6060830184613290565b95945050505050565b600060208201905061376b6000830184613281565b92915050565b60006020820190506137866000830184613290565b92915050565b600060a0820190506137a16000830188613290565b6137ae6020830187613290565b6137bb6040830186613290565b6137c86060830185613658565b6137d560808301846130cc565b9695505050505050565b60006060820190506137f46000830186613290565b6138016020830185613658565b61380e6040830184613676565b949350505050565b600060808201905061382b6000830187613290565b6138386020830186613676565b6138456040830185613290565b6138526060830184613290565b95945050505050565b60006020820190506138706000830184613320565b92915050565b600060208201905061388b600083018461332f565b92915050565b600060208201905081810360008301526138ab8184613377565b905092915050565b600060208201905081810360008301526138cc816133b0565b9050919050565b600060208201905081810360008301526138ec816133d3565b9050919050565b6000602082019050818103600083015261390c816133f6565b9050919050565b6000602082019050818103600083015261392c81613419565b9050919050565b6000602082019050818103600083015261394c8161343c565b9050919050565b6000602082019050818103600083015261396c81613482565b9050919050565b6000602082019050818103600083015261398c816134a5565b9050919050565b600060208201905081810360008301526139ac816134c8565b9050919050565b600060208201905081810360008301526139cc816134eb565b9050919050565b600060208201905081810360008301526139ec8161350e565b9050919050565b60006020820190508181036000830152613a0c81613531565b9050919050565b60006020820190508181036000830152613a2c81613554565b9050919050565b60006020820190508181036000830152613a4c81613577565b9050919050565b60006020820190508181036000830152613a6c8161359a565b9050919050565b60006020820190508181036000830152613a8c816135bd565b9050919050565b60006020820190508181036000830152613aac816135e0565b9050919050565b60006020820190508181036000830152613acc81613603565b9050919050565b60006020820190508181036000830152613aec81613626565b9050919050565b6000602082019050613b086000830184613658565b92915050565b600061012082019050613b24600083018c613658565b613b31602083018b6130cc565b8181036040830152613b43818a6130db565b90508181036060830152613b578189613223565b90508181036080830152613b6b81886131ae565b905081810360a0830152613b7f8187613139565b9050613b8e60c0830186613667565b613b9b60e0830185613667565b818103610100830152613bae8184613377565b90509a9950505050505050505050565b6000604082019050613bd36000830185613658565b613be06020830184613658565b9392505050565b6000606082019050613bfc6000830186613658565b613c096020830185613658565b613c166040830184613658565b949350505050565b6000608082019050613c336000830187613658565b613c406020830186613676565b613c4d6040830185613658565b8181036060830152613c5f8184613377565b905095945050505050565b6000613c74613c85565b9050613c808282614179565b919050565b6000604051905090565b600067ffffffffffffffff821115613caa57613ca96142b9565b5b602082029050602081019050919050565b600067ffffffffffffffff821115613cd657613cd56142b9565b5b602082029050602081019050919050565b600067ffffffffffffffff821115613d0257613d016142b9565b5b602082029050602081019050919050565b600067ffffffffffffffff821115613d2e57613d2d6142b9565b5b613d37826142e8565b9050602081019050919050565b600067ffffffffffffffff821115613d5f57613d5e6142b9565b5b613d68826142e8565b9050602081019050919050565b6000819050602082019050919050565b6000819050602082019050919050565b6000819050602082019050919050565b6000819050602082019050919050565b600081519050919050565b600081519050919050565b600081519050919050565b600081519050919050565b600081519050919050565b600081519050919050565b6000602082019050919050565b6000602082019050919050565b6000602082019050919050565b6000602082019050919050565b600082825260208201905092915050565b600082825260208201905092915050565b600082825260208201905092915050565b600082825260208201905092915050565b600082825260208201905092915050565b600081905092915050565b600082825260208201905092915050565b600082825260208201905092915050565b600081905092915050565b6000613ec382614092565b9150613ece83614092565b9250827fffffffffffffffffffffffffffffffffffffffffffffffffffffffffffffffff03821115613f0357613f026141fd565b5b828201905092915050565b6000613f198261409c565b9150613f248361409c565b92508267ffffffffffffffff03821115613f4157613f406141fd565b5b828201905092915050565b6000613f5782614092565b9150613f6283614092565b925082613f7257613f7161422c565b5b828204905092915050565b6000613f8882614092565b9150613f9383614092565b9250817fffffffffffffffffffffffffffffffffffffffffffffffffffffffffffffffff0483118215151615613fcc57613fcb6141fd565b5b828202905092915050565b6000613fe282614092565b9150613fed83614092565b92508282101561400057613fff6141fd565b5b828203905092915050565b600061401682614072565b9050919050565b60008115159050919050565b6000819050919050565b60007fffffffff0000000000000000000000000000000000000000000000000000000082169050919050565b600081905061406d82614818565b919050565b600073ffffffffffffffffffffffffffffffffffffffff82169050919050565b6000819050919050565b600067ffffffffffffffff82169050919050565b600060ff82169050919050565b60006140c8826140cf565b9050919050565b60006140da82614072565b9050919050565b60006140ec8261405f565b9050919050565b60006140fe8261409c565b9050919050565b82818337600083830152505050565b60005b83811015614132578082015181840152602081019050614117565b83811115614141576000848401525b50505050565b6000600282049050600182168061415f57607f821691505b602082108114156141735761417261428a565b5b50919050565b614182826142e8565b810181811067ffffffffffffffff821117156141a1576141a06142b9565b5b80604052505050565b60006141b582614092565b91507fffffffffffffffffffffffffffffffffffffffffffffffffffffffffffffffff8214156141e8576141e76141fd565b5b600182019050919050565b6000819050919050565b7f4e487b7100000000000000000000000000000000000000000000000000000000600052601160045260246000fd5b7f4e487b7100000000000000000000000000000000000000000000000000000000600052601260045260246000fd5b7f4e487b7100000000000000000000000000000000000000000000000000000000600052602160045260246000fd5b7f4e487b7100000000000000000000000000000000000000000000000000000000600052602260045260246000fd5b7f4e487b7100000000000000000000000000000000000000000000000000000000600052604160045260246000fd5b6000601f19601f8301169050919050565b7f45434453413a20696e76616c6964207369676e61747572650000000000000000600082015250565b7f476f7665726e6f723a206f6e6c79476f7665726e616e63650000000000000000600082015250565b7f476f7665726e6f72566f74657351756f72756d4672616374696f6e3a2071756f60008201527f72756d4e756d657261746f72206f7665722071756f72756d44656e6f6d696e6160208201527f746f720000000000000000000000000000000000000000000000000000000000604082015250565b7f476f7665726e6f72436f6d7061746962696c697479427261766f3a2070726f7060008201527f6f73657220766f7465732062656c6f772070726f706f73616c2074687265736860208201527f6f6c640000000000000000000000000000000000000000000000000000000000604082015250565b7f45434453413a20696e76616c6964207369676e6174757265206c656e67746800600082015250565b7f1901000000000000000000000000000000000000000000000000000000000000600082015250565b7f476f7665726e6f723a20696e76616c69642070726f706f73616c206c656e677460008201527f6800000000000000000000000000000000000000000000000000000000000000602082015250565b7f476f7665726e6f7253657474696e67733a20766f74696e6720706572696f642060008201527f746f6f206c6f7700000000000000000000000000000000000000000000000000602082015250565b7f45434453413a20696e76616c6964207369676e6174757265202773272076616c60008201527f7565000000000000000000000000000000000000000000000000000000000000602082015250565b7f476f7665726e6f72566f74696e6753696d706c653a20766f746520616c72656160008201527f6479206361737400000000000000000000000000000000000000000000000000602082015250565b7f476f7665726e6f723a20766f7465206e6f742063757272656e746c792061637460008201527f6976650000000000000000000000000000000000000000000000000000000000602082015250565b7f476f7665726e6f723a20656d7074792070726f706f73616c0000000000000000600082015250565b7f45434453413a20696e76616c6964207369676e6174757265202776272076616c60008201527f7565000000000000000000000000000000000000000000000000000000000000602082015250565b7f53616665436173743a2076616c756520646f65736e27742066697420696e203660008201527f3420626974730000000000000000000000000000000000000000000000000000602082015250565b7f476f7665726e6f723a2070726f706f73616c206e6f7420616374697665000000600082015250565b7f476f7665726e6f723a2070726f706f73616c206e6f742073756363657373667560008201527f6c00000000000000000000000000000000000000000000000000000000000000602082015250565b7f476f7665726e6f723a20756e6b6e6f776e2070726f706f73616c206964000000600082015250565b7f476f7665726e6f72566f74696e6753696d706c653a20696e76616c696420766160008201527f6c756520666f7220656e756d20566f7465547970650000000000000000000000602082015250565b7f476f7665726e6f723a2070726f706f73616c20616c726561647920657869737460008201527f7300000000000000000000000000000000000000000000000000000000000000602082015250565b600881106148295761482861425b565b5b50565b6148358161400b565b811461484057600080fd5b50565b61484c81614029565b811461485757600080fd5b50565b61486381614033565b811461486e57600080fd5b50565b61487a81614092565b811461488557600080fd5b50565b614891816140b0565b811461489c57600080fd5b5056fe476f7665726e6f723a2063616c6c20726576657274656420776974686f7574206d657373616765a26469706673582212209ec6d56486f21a3d265f59697a51c3f62b28d419d470530b91c9e0fd53f11ea764736f6c63430008020033",
  "immutableReferences": {
    "1508": [
      {
        "length": 32,
        "start": 4817
      },
      {
        "length": 32,
        "start": 5013
      },
      {
        "length": 32,
        "start": 7168
      }
    ],
    "4345": [
      {
        "length": 32,
        "start": 7648
      }
    ],
    "4347": [
      {
        "length": 32,
        "start": 7607
      }
    ],
    "4349": [
      {
        "length": 32,
        "start": 7521
      }
    ],
    "4351": [
      {
        "length": 32,
        "start": 7724
      }
    ],
    "4353": [
      {
        "length": 32,
        "start": 7757
      }
    ],
    "4355": [
      {
        "length": 32,
        "start": 7691
      }
    ]
  },
  "source": "// SPDX-License-Identifier: MIT\n\npragma solidity ^0.8.0;\n\nimport \"@openzeppelin/contracts/governance/extensions/GovernorProposalThreshold.sol\";\nimport \"@openzeppelin/contracts/governance/extensions/GovernorSettings.sol\";\nimport \"@openzeppelin/contracts/governance/extensions/GovernorCountingSimple.sol\";\nimport \"@openzeppelin/contracts/governance/extensions/GovernorVotesQuorumFraction.sol\";\nimport \"@openzeppelin/contracts/token/ERC20/extensions/ERC20Votes.sol\";\n\n\ncontract EVIGov is\n    GovernorProposalThreshold,\n    GovernorSettings,\n    GovernorVotesQuorumFraction,\n    GovernorCountingSimple\n{\n    constructor(\n        string memory name_,\n        ERC20Votes token_,\n        uint256 votingDelay_,\n        uint256 votingPeriod_,\n        uint256 quorumNumerator_\n    )\n        Governor(name_)\n        GovernorSettings(votingDelay_, votingPeriod_, 0)\n        GovernorVotes(token_)\n        GovernorVotesQuorumFraction(quorumNumerator_)\n    {}\n\n    function cancel(\n        address[] memory targets,\n        uint256[] memory values,\n        bytes[] memory calldatas,\n        bytes32 salt\n    ) public returns (uint256 proposalId) {\n        return _cancel(targets, values, calldatas, salt);\n    }\n\n    function getVotes(address account, uint256 blockNumber)\n        public\n        view\n        virtual\n        override(IGovernor, GovernorVotes)\n        returns (uint256)\n    {\n        return super.getVotes(account, blockNumber);\n    }\n\n    function proposalThreshold() public view override(Governor, GovernorSettings) returns (uint256) {\n        return super.proposalThreshold();\n    }\n\n    function propose(\n        address[] memory targets,\n        uint256[] memory values,\n        bytes[] memory calldatas,\n        string memory description\n    ) public virtual override(Governor, GovernorProposalThreshold) returns (uint256) {\n        return super.propose(targets, values, calldatas, description);\n    }\n}\n",
  "sourcePath": "/Users/dm/Documents/wishbone/tree3/evi-dao-2/contracts/EVIGovernor.sol",
  "compiler": {
    "name": "solc",
    "version": "0.8.2+commit.661d1103.Emscripten.clang"
  },
  "schemaVersion": "3.4.3",
  "updatedAt": "2022-02-06T19:21:49.486Z",
  "networkType": "ethereum",
  "devdoc": {
    "kind": "dev",
    "methods": {
      "COUNTING_MODE()": {
        "details": "See {IGovernor-COUNTING_MODE}."
      },
      "castVote(uint256,uint8)": {
        "details": "See {IGovernor-castVote}."
      },
      "castVoteBySig(uint256,uint8,uint8,bytes32,bytes32)": {
        "details": "See {IGovernor-castVoteBySig}."
      },
      "castVoteWithReason(uint256,uint8,string)": {
        "details": "See {IGovernor-castVoteWithReason}."
      },
      "execute(address[],uint256[],bytes[],bytes32)": {
        "details": "See {IGovernor-execute}."
      },
      "hasVoted(uint256,address)": {
        "details": "See {IGovernor-hasVoted}."
      },
      "hashProposal(address[],uint256[],bytes[],bytes32)": {
        "details": "See {IGovernor-hashProposal}. The proposal id is produced by hashing the RLC encoded `targets` array, the `values` array, the `calldatas` array and the descriptionHash (bytes32 which itself is the keccak256 hash of the description string). This proposal id can be produced from the proposal data which is part of the {ProposalCreated} event. It can even be computed in advance, before the proposal is submitted. Note that the chainId and the governor address are not part of the proposal id computation. Consequently, the same proposal (with same operation and same description) will have the same id if submitted on multiple governors accross multiple networks. This also means that in order to execute the same operation twice (on the same governor) the proposer will have to change the description in order to avoid proposal id conflicts."
      },
      "name()": {
        "details": "See {IGovernor-name}."
      },
      "proposalDeadline(uint256)": {
        "details": "See {IGovernor-proposalDeadline}."
      },
      "proposalSnapshot(uint256)": {
        "details": "See {IGovernor-proposalSnapshot}."
      },
      "proposalVotes(uint256)": {
        "details": "Accessor to the internal vote counts."
      },
      "quorum(uint256)": {
        "details": "Minimum number of cast voted required for a proposal to be successful. Note: The `blockNumber` parameter corresponds to the snaphot used for counting vote. This allows to scale the quroum depending on values such as the totalSupply of a token at this block (see {ERC20Votes})."
      },
      "setProposalThreshold(uint256)": {
        "details": "Update the proposal threshold. This operation can only be performed through a governance proposal. Emits a {ProposalThresholdSet} event."
      },
      "setVotingDelay(uint256)": {
        "details": "Update the voting delay. This operation can only be performed through a governance proposal. Emits a {VotingDelaySet} event."
      },
      "setVotingPeriod(uint256)": {
        "details": "Update the voting period. This operation can only be performed through a governance proposal. Emits a {VotingPeriodSet} event."
      },
      "state(uint256)": {
        "details": "See {IGovernor-state}."
      },
      "supportsInterface(bytes4)": {
        "details": "See {IERC165-supportsInterface}."
      },
      "version()": {
        "details": "See {IGovernor-version}."
      },
      "votingDelay()": {
        "details": "See {IGovernor-votingDelay}."
      },
      "votingPeriod()": {
        "details": "See {IGovernor-votingPeriod}."
      }
    },
    "version": 1
  },
  "userdoc": {
    "kind": "user",
    "methods": {
      "quorum(uint256)": {
        "notice": "module:user-config"
      }
    },
    "version": 1
  }
}